{
	"myroll.sol": {
		"Lottery": {
			"abi": [
				{
					"inputs": [],
					"stateMutability": "nonpayable",
					"type": "constructor"
				},
				{
					"anonymous": false,
					"inputs": [
						{
							"indexed": false,
							"internalType": "address",
							"name": "firstPrizeWinner",
							"type": "address"
						},
						{
							"indexed": false,
							"internalType": "address",
							"name": "secondPrizeWinner",
							"type": "address"
						},
						{
							"indexed": false,
							"internalType": "address",
							"name": "thirdPrizeWinner",
							"type": "address"
						}
					],
					"name": "LotteryDrawn",
					"type": "event"
				},
				{
					"anonymous": false,
					"inputs": [
						{
							"indexed": false,
							"internalType": "address",
							"name": "participant",
							"type": "address"
						}
					],
					"name": "LotteryEntered",
					"type": "event"
				},
				{
					"inputs": [],
					"name": "enterLottery",
					"outputs": [],
					"stateMutability": "nonpayable",
					"type": "function"
				},
				{
					"inputs": [],
					"name": "firstPrizeWinner",
					"outputs": [
						{
							"internalType": "address",
							"name": "",
							"type": "address"
						}
					],
					"stateMutability": "view",
					"type": "function"
				},
				{
					"inputs": [],
					"name": "getParticipants",
					"outputs": [
						{
							"internalType": "address[]",
							"name": "",
							"type": "address[]"
						}
					],
					"stateMutability": "view",
					"type": "function"
				},
				{
					"inputs": [],
					"name": "manager",
					"outputs": [
						{
							"internalType": "address",
							"name": "",
							"type": "address"
						}
					],
					"stateMutability": "view",
					"type": "function"
				},
				{
					"inputs": [
						{
							"internalType": "uint256",
							"name": "",
							"type": "uint256"
						}
					],
					"name": "participants",
					"outputs": [
						{
							"internalType": "address",
							"name": "",
							"type": "address"
						}
					],
					"stateMutability": "view",
					"type": "function"
				},
				{
					"inputs": [],
					"name": "secondPrizeWinner",
					"outputs": [
						{
							"internalType": "address",
							"name": "",
							"type": "address"
						}
					],
					"stateMutability": "view",
					"type": "function"
				},
				{
					"inputs": [],
					"name": "thirdPrizeWinner",
					"outputs": [
						{
							"internalType": "address",
							"name": "",
							"type": "address"
						}
					],
					"stateMutability": "view",
					"type": "function"
				}
			],
			"devdoc": {
				"kind": "dev",
				"methods": {},
				"version": 1
			},
			"evm": {
				"assembly": "    /* \"myroll.sol\":57:2116  contract Lottery {... */\n  mstore(0x40, 0x80)\n    /* \"myroll.sol\":407:458  constructor() {... */\n  callvalue\n  dup1\n  iszero\n  tag_1\n  jumpi\n  0x00\n  dup1\n  revert\ntag_1:\n  pop\n    /* \"myroll.sol\":441:451  msg.sender */\n  caller\n    /* \"myroll.sol\":431:438  manager */\n  0x00\n  dup1\n    /* \"myroll.sol\":431:451  manager = msg.sender */\n  0x0100\n  exp\n  dup2\n  sload\n  dup2\n  0xffffffffffffffffffffffffffffffffffffffff\n  mul\n  not\n  and\n  swap1\n  dup4\n  0xffffffffffffffffffffffffffffffffffffffff\n  and\n  mul\n  or\n  swap1\n  sstore\n  pop\n    /* \"myroll.sol\":57:2116  contract Lottery {... */\n  dataSize(sub_0)\n  dup1\n  dataOffset(sub_0)\n  0x00\n  codecopy\n  0x00\n  return\nstop\n\nsub_0: assembly {\n        /* \"myroll.sol\":57:2116  contract Lottery {... */\n      mstore(0x40, 0x80)\n      callvalue\n      dup1\n      iszero\n      tag_1\n      jumpi\n      0x00\n      dup1\n      revert\n    tag_1:\n      pop\n      jumpi(tag_2, lt(calldatasize, 0x04))\n      shr(0xe0, calldataload(0x00))\n      dup1\n      0x5aa68ac0\n      gt\n      tag_10\n      jumpi\n      dup1\n      0x5aa68ac0\n      eq\n      tag_6\n      jumpi\n      dup1\n      0x9be6ae64\n      eq\n      tag_7\n      jumpi\n      dup1\n      0xb3d64268\n      eq\n      tag_8\n      jumpi\n      dup1\n      0xc1af5785\n      eq\n      tag_9\n      jumpi\n      jump(tag_2)\n    tag_10:\n      dup1\n      0x35c1d349\n      eq\n      tag_3\n      jumpi\n      dup1\n      0x42a3e93f\n      eq\n      tag_4\n      jumpi\n      dup1\n      0x481c6a75\n      eq\n      tag_5\n      jumpi\n    tag_2:\n      0x00\n      dup1\n      revert\n        /* \"myroll.sol\":108:137  address[] public participants */\n    tag_3:\n      tag_11\n      0x04\n      dup1\n      calldatasize\n      sub\n      dup2\n      add\n      swap1\n      tag_12\n      swap2\n      swap1\n      tag_13\n      jump\t// in\n    tag_12:\n      tag_14\n      jump\t// in\n    tag_11:\n      mload(0x40)\n      tag_15\n      swap2\n      swap1\n      tag_16\n      jump\t// in\n    tag_15:\n      mload(0x40)\n      dup1\n      swap2\n      sub\n      swap1\n      return\n        /* \"myroll.sol\":143:174  address public firstPrizeWinner */\n    tag_4:\n      tag_17\n      tag_18\n      jump\t// in\n    tag_17:\n      mload(0x40)\n      tag_19\n      swap2\n      swap1\n      tag_16\n      jump\t// in\n    tag_19:\n      mload(0x40)\n      dup1\n      swap2\n      sub\n      swap1\n      return\n        /* \"myroll.sol\":80:102  address public manager */\n    tag_5:\n      tag_20\n      tag_21\n      jump\t// in\n    tag_20:\n      mload(0x40)\n      tag_22\n      swap2\n      swap1\n      tag_16\n      jump\t// in\n    tag_22:\n      mload(0x40)\n      dup1\n      swap2\n      sub\n      swap1\n      return\n        /* \"myroll.sol\":2012:2114  function getParticipants() public view returns (address[] memory) {... */\n    tag_6:\n      tag_23\n      tag_24\n      jump\t// in\n    tag_23:\n      mload(0x40)\n      tag_25\n      swap2\n      swap1\n      tag_26\n      jump\t// in\n    tag_25:\n      mload(0x40)\n      dup1\n      swap2\n      sub\n      swap1\n      return\n        /* \"myroll.sol\":218:249  address public thirdPrizeWinner */\n    tag_7:\n      tag_27\n      tag_28\n      jump\t// in\n    tag_27:\n      mload(0x40)\n      tag_29\n      swap2\n      swap1\n      tag_16\n      jump\t// in\n    tag_29:\n      mload(0x40)\n      dup1\n      swap2\n      sub\n      swap1\n      return\n        /* \"myroll.sol\":180:212  address public secondPrizeWinner */\n    tag_8:\n      tag_30\n      tag_31\n      jump\t// in\n    tag_30:\n      mload(0x40)\n      tag_32\n      swap2\n      swap1\n      tag_16\n      jump\t// in\n    tag_32:\n      mload(0x40)\n      dup1\n      swap2\n      sub\n      swap1\n      return\n        /* \"myroll.sol\":464:721  function enterLottery() public {... */\n    tag_9:\n      tag_33\n      tag_34\n      jump\t// in\n    tag_33:\n      stop\n        /* \"myroll.sol\":108:137  address[] public participants */\n    tag_14:\n      0x01\n      dup2\n      dup2\n      sload\n      dup2\n      lt\n      tag_35\n      jumpi\n      0x00\n      dup1\n      revert\n    tag_35:\n      swap1\n      0x00\n      mstore\n      keccak256(0x00, 0x20)\n      add\n      0x00\n      swap2\n      pop\n      sload\n      swap1\n      0x0100\n      exp\n      swap1\n      div\n      0xffffffffffffffffffffffffffffffffffffffff\n      and\n      dup2\n      jump\t// out\n        /* \"myroll.sol\":143:174  address public firstPrizeWinner */\n    tag_18:\n      0x02\n      0x00\n      swap1\n      sload\n      swap1\n      0x0100\n      exp\n      swap1\n      div\n      0xffffffffffffffffffffffffffffffffffffffff\n      and\n      dup2\n      jump\t// out\n        /* \"myroll.sol\":80:102  address public manager */\n    tag_21:\n      0x00\n      dup1\n      sload\n      swap1\n      0x0100\n      exp\n      swap1\n      div\n      0xffffffffffffffffffffffffffffffffffffffff\n      and\n      dup2\n      jump\t// out\n        /* \"myroll.sol\":2012:2114  function getParticipants() public view returns (address[] memory) {... */\n    tag_24:\n        /* \"myroll.sol\":2060:2076  address[] memory */\n      0x60\n        /* \"myroll.sol\":2095:2107  participants */\n      0x01\n        /* \"myroll.sol\":2088:2107  return participants */\n      dup1\n      sload\n      dup1\n      0x20\n      mul\n      0x20\n      add\n      mload(0x40)\n      swap1\n      dup2\n      add\n      0x40\n      mstore\n      dup1\n      swap3\n      swap2\n      swap1\n      dup2\n      dup2\n      mstore\n      0x20\n      add\n      dup3\n      dup1\n      sload\n      dup1\n      iszero\n      tag_38\n      jumpi\n      0x20\n      mul\n      dup3\n      add\n      swap2\n      swap1\n      0x00\n      mstore\n      keccak256(0x00, 0x20)\n      swap1\n    tag_39:\n      dup2\n      0x00\n      swap1\n      sload\n      swap1\n      0x0100\n      exp\n      swap1\n      div\n      0xffffffffffffffffffffffffffffffffffffffff\n      and\n      0xffffffffffffffffffffffffffffffffffffffff\n      and\n      dup2\n      mstore\n      0x20\n      add\n      swap1\n      0x01\n      add\n      swap1\n      dup1\n      dup4\n      gt\n      tag_39\n      jumpi\n    tag_38:\n      pop\n      pop\n      pop\n      pop\n      pop\n      swap1\n      pop\n        /* \"myroll.sol\":2012:2114  function getParticipants() public view returns (address[] memory) {... */\n      swap1\n      jump\t// out\n        /* \"myroll.sol\":218:249  address public thirdPrizeWinner */\n    tag_28:\n      0x04\n      0x00\n      swap1\n      sload\n      swap1\n      0x0100\n      exp\n      swap1\n      div\n      0xffffffffffffffffffffffffffffffffffffffff\n      and\n      dup2\n      jump\t// out\n        /* \"myroll.sol\":180:212  address public secondPrizeWinner */\n    tag_31:\n      0x03\n      0x00\n      swap1\n      sload\n      swap1\n      0x0100\n      exp\n      swap1\n      div\n      0xffffffffffffffffffffffffffffffffffffffff\n      and\n      dup2\n      jump\t// out\n        /* \"myroll.sol\":464:721  function enterLottery() public {... */\n    tag_34:\n        /* \"myroll.sol\":535:536  7 */\n      0x07\n        /* \"myroll.sol\":513:525  participants */\n      0x01\n        /* \"myroll.sol\":513:532  participants.length */\n      dup1\n      sload\n      swap1\n      pop\n        /* \"myroll.sol\":513:536  participants.length < 7 */\n      lt\n        /* \"myroll.sol\":505:556  require(participants.length < 7, \"Lottery is full\") */\n      tag_41\n      jumpi\n      mload(0x40)\n      0x08c379a000000000000000000000000000000000000000000000000000000000\n      dup2\n      mstore\n      0x04\n      add\n      tag_42\n      swap1\n      tag_43\n      jump\t// in\n    tag_42:\n      mload(0x40)\n      dup1\n      swap2\n      sub\n      swap1\n      revert\n    tag_41:\n        /* \"myroll.sol\":566:578  participants */\n      0x01\n        /* \"myroll.sol\":584:594  msg.sender */\n      caller\n        /* \"myroll.sol\":566:595  participants.push(msg.sender) */\n      swap1\n      dup1\n      0x01\n      dup2\n      sload\n      add\n      dup1\n      dup3\n      sstore\n      dup1\n      swap2\n      pop\n      pop\n      0x01\n      swap1\n      sub\n      swap1\n      0x00\n      mstore\n      keccak256(0x00, 0x20)\n      add\n      0x00\n      swap1\n      swap2\n      swap1\n      swap2\n      swap1\n      swap2\n      0x0100\n      exp\n      dup2\n      sload\n      dup2\n      0xffffffffffffffffffffffffffffffffffffffff\n      mul\n      not\n      and\n      swap1\n      dup4\n      0xffffffffffffffffffffffffffffffffffffffff\n      and\n      mul\n      or\n      swap1\n      sstore\n      pop\n        /* \"myroll.sol\":610:636  LotteryEntered(msg.sender) */\n      0x4c72b57c1ca715219cf2c7be9edc8a3ea19dfb9a76fb7a05e2a8062a027ee970\n        /* \"myroll.sol\":625:635  msg.sender */\n      caller\n        /* \"myroll.sol\":610:636  LotteryEntered(msg.sender) */\n      mload(0x40)\n      tag_45\n      swap2\n      swap1\n      tag_16\n      jump\t// in\n    tag_45:\n      mload(0x40)\n      dup1\n      swap2\n      sub\n      swap1\n      log1\n        /* \"myroll.sol\":674:675  7 */\n      0x07\n        /* \"myroll.sol\":651:663  participants */\n      0x01\n        /* \"myroll.sol\":651:670  participants.length */\n      dup1\n      sload\n      swap1\n      pop\n        /* \"myroll.sol\":651:675  participants.length == 7 */\n      sub\n        /* \"myroll.sol\":647:715  if (participants.length == 7) {... */\n      tag_46\n      jumpi\n        /* \"myroll.sol\":691:704  drawLottery() */\n      tag_47\n        /* \"myroll.sol\":691:702  drawLottery */\n      tag_48\n        /* \"myroll.sol\":691:704  drawLottery() */\n      jump\t// in\n    tag_47:\n        /* \"myroll.sol\":647:715  if (participants.length == 7) {... */\n    tag_46:\n        /* \"myroll.sol\":464:721  function enterLottery() public {... */\n      jump\t// out\n        /* \"myroll.sol\":727:1765  function drawLottery() private {... */\n    tag_48:\n        /* \"myroll.sol\":799:800  7 */\n      0x07\n        /* \"myroll.sol\":776:788  participants */\n      0x01\n        /* \"myroll.sol\":776:795  participants.length */\n      dup1\n      sload\n      swap1\n      pop\n        /* \"myroll.sol\":776:800  participants.length == 7 */\n      eq\n        /* \"myroll.sol\":768:844  require(participants.length == 7, \"Not enough participants to draw lottery\") */\n      tag_50\n      jumpi\n      mload(0x40)\n      0x08c379a000000000000000000000000000000000000000000000000000000000\n      dup2\n      mstore\n      0x04\n      add\n      tag_51\n      swap1\n      tag_52\n      jump\t// in\n    tag_51:\n      mload(0x40)\n      dup1\n      swap2\n      sub\n      swap1\n      revert\n    tag_50:\n        /* \"myroll.sol\":920:940  uint firstPrizeIndex */\n      0x00\n        /* \"myroll.sol\":954:966  participants */\n      0x01\n        /* \"myroll.sol\":954:973  participants.length */\n      dup1\n      sload\n      swap1\n      pop\n        /* \"myroll.sol\":943:951  random() */\n      tag_53\n        /* \"myroll.sol\":943:949  random */\n      tag_54\n        /* \"myroll.sol\":943:951  random() */\n      jump\t// in\n    tag_53:\n        /* \"myroll.sol\":943:973  random() % participants.length */\n      tag_55\n      swap2\n      swap1\n      tag_56\n      jump\t// in\n    tag_55:\n        /* \"myroll.sol\":920:973  uint firstPrizeIndex = random() % participants.length */\n      swap1\n      pop\n        /* \"myroll.sol\":1002:1014  participants */\n      0x01\n        /* \"myroll.sol\":1015:1030  firstPrizeIndex */\n      dup2\n        /* \"myroll.sol\":1002:1031  participants[firstPrizeIndex] */\n      dup2\n      sload\n      dup2\n      lt\n      tag_57\n      jumpi\n      tag_58\n      tag_59\n      jump\t// in\n    tag_58:\n    tag_57:\n      swap1\n      0x00\n      mstore\n      keccak256(0x00, 0x20)\n      add\n      0x00\n      swap1\n      sload\n      swap1\n      0x0100\n      exp\n      swap1\n      div\n      0xffffffffffffffffffffffffffffffffffffffff\n      and\n        /* \"myroll.sol\":983:999  firstPrizeWinner */\n      0x02\n      0x00\n        /* \"myroll.sol\":983:1031  firstPrizeWinner = participants[firstPrizeIndex] */\n      0x0100\n      exp\n      dup2\n      sload\n      dup2\n      0xffffffffffffffffffffffffffffffffffffffff\n      mul\n      not\n      and\n      swap1\n      dup4\n      0xffffffffffffffffffffffffffffffffffffffff\n      and\n      mul\n      or\n      swap1\n      sstore\n      pop\n        /* \"myroll.sol\":1134:1146  participants */\n      0x01\n        /* \"myroll.sol\":1169:1170  1 */\n      dup1\n        /* \"myroll.sol\":1147:1159  participants */\n      dup1\n        /* \"myroll.sol\":1147:1166  participants.length */\n      dup1\n      sload\n      swap1\n      pop\n        /* \"myroll.sol\":1147:1170  participants.length - 1 */\n      tag_61\n      swap2\n      swap1\n      tag_62\n      jump\t// in\n    tag_61:\n        /* \"myroll.sol\":1134:1171  participants[participants.length - 1] */\n      dup2\n      sload\n      dup2\n      lt\n      tag_63\n      jumpi\n      tag_64\n      tag_59\n      jump\t// in\n    tag_64:\n    tag_63:\n      swap1\n      0x00\n      mstore\n      keccak256(0x00, 0x20)\n      add\n      0x00\n      swap1\n      sload\n      swap1\n      0x0100\n      exp\n      swap1\n      div\n      0xffffffffffffffffffffffffffffffffffffffff\n      and\n        /* \"myroll.sol\":1102:1114  participants */\n      0x01\n        /* \"myroll.sol\":1115:1130  firstPrizeIndex */\n      dup3\n        /* \"myroll.sol\":1102:1131  participants[firstPrizeIndex] */\n      dup2\n      sload\n      dup2\n      lt\n      tag_66\n      jumpi\n      tag_67\n      tag_59\n      jump\t// in\n    tag_67:\n    tag_66:\n      swap1\n      0x00\n      mstore\n      keccak256(0x00, 0x20)\n      add\n      0x00\n        /* \"myroll.sol\":1102:1171  participants[firstPrizeIndex] = participants[participants.length - 1] */\n      0x0100\n      exp\n      dup2\n      sload\n      dup2\n      0xffffffffffffffffffffffffffffffffffffffff\n      mul\n      not\n      and\n      swap1\n      dup4\n      0xffffffffffffffffffffffffffffffffffffffff\n      and\n      mul\n      or\n      swap1\n      sstore\n      pop\n        /* \"myroll.sol\":1181:1193  participants */\n      0x01\n        /* \"myroll.sol\":1181:1199  participants.pop() */\n      dup1\n      sload\n      dup1\n      tag_69\n      jumpi\n      tag_70\n      tag_71\n      jump\t// in\n    tag_70:\n    tag_69:\n      0x01\n      swap1\n      sub\n      dup2\n      dup2\n      swap1\n      0x00\n      mstore\n      keccak256(0x00, 0x20)\n      add\n      exp(0x0100, 0x00)\n      dup2\n      sload\n      swap1\n      0xffffffffffffffffffffffffffffffffffffffff\n      mul\n      not\n      and\n      swap1\n      sstore\n      swap1\n      sstore\n        /* \"myroll.sol\":1210:1231  uint secondPrizeIndex */\n      0x00\n        /* \"myroll.sol\":1245:1257  participants */\n      0x01\n        /* \"myroll.sol\":1245:1264  participants.length */\n      dup1\n      sload\n      swap1\n      pop\n        /* \"myroll.sol\":1234:1242  random() */\n      tag_73\n        /* \"myroll.sol\":1234:1240  random */\n      tag_54\n        /* \"myroll.sol\":1234:1242  random() */\n      jump\t// in\n    tag_73:\n        /* \"myroll.sol\":1234:1264  random() % participants.length */\n      tag_74\n      swap2\n      swap1\n      tag_56\n      jump\t// in\n    tag_74:\n        /* \"myroll.sol\":1210:1264  uint secondPrizeIndex = random() % participants.length */\n      swap1\n      pop\n        /* \"myroll.sol\":1294:1306  participants */\n      0x01\n        /* \"myroll.sol\":1307:1323  secondPrizeIndex */\n      dup2\n        /* \"myroll.sol\":1294:1324  participants[secondPrizeIndex] */\n      dup2\n      sload\n      dup2\n      lt\n      tag_75\n      jumpi\n      tag_76\n      tag_59\n      jump\t// in\n    tag_76:\n    tag_75:\n      swap1\n      0x00\n      mstore\n      keccak256(0x00, 0x20)\n      add\n      0x00\n      swap1\n      sload\n      swap1\n      0x0100\n      exp\n      swap1\n      div\n      0xffffffffffffffffffffffffffffffffffffffff\n      and\n        /* \"myroll.sol\":1274:1291  secondPrizeWinner */\n      0x03\n      0x00\n        /* \"myroll.sol\":1274:1324  secondPrizeWinner = participants[secondPrizeIndex] */\n      0x0100\n      exp\n      dup2\n      sload\n      dup2\n      0xffffffffffffffffffffffffffffffffffffffff\n      mul\n      not\n      and\n      swap1\n      dup4\n      0xffffffffffffffffffffffffffffffffffffffff\n      and\n      mul\n      or\n      swap1\n      sstore\n      pop\n        /* \"myroll.sol\":1429:1441  participants */\n      0x01\n        /* \"myroll.sol\":1464:1465  1 */\n      dup1\n        /* \"myroll.sol\":1442:1454  participants */\n      dup1\n        /* \"myroll.sol\":1442:1461  participants.length */\n      dup1\n      sload\n      swap1\n      pop\n        /* \"myroll.sol\":1442:1465  participants.length - 1 */\n      tag_78\n      swap2\n      swap1\n      tag_62\n      jump\t// in\n    tag_78:\n        /* \"myroll.sol\":1429:1466  participants[participants.length - 1] */\n      dup2\n      sload\n      dup2\n      lt\n      tag_79\n      jumpi\n      tag_80\n      tag_59\n      jump\t// in\n    tag_80:\n    tag_79:\n      swap1\n      0x00\n      mstore\n      keccak256(0x00, 0x20)\n      add\n      0x00\n      swap1\n      sload\n      swap1\n      0x0100\n      exp\n      swap1\n      div\n      0xffffffffffffffffffffffffffffffffffffffff\n      and\n        /* \"myroll.sol\":1396:1408  participants */\n      0x01\n        /* \"myroll.sol\":1409:1425  secondPrizeIndex */\n      dup3\n        /* \"myroll.sol\":1396:1426  participants[secondPrizeIndex] */\n      dup2\n      sload\n      dup2\n      lt\n      tag_82\n      jumpi\n      tag_83\n      tag_59\n      jump\t// in\n    tag_83:\n    tag_82:\n      swap1\n      0x00\n      mstore\n      keccak256(0x00, 0x20)\n      add\n      0x00\n        /* \"myroll.sol\":1396:1466  participants[secondPrizeIndex] = participants[participants.length - 1] */\n      0x0100\n      exp\n      dup2\n      sload\n      dup2\n      0xffffffffffffffffffffffffffffffffffffffff\n      mul\n      not\n      and\n      swap1\n      dup4\n      0xffffffffffffffffffffffffffffffffffffffff\n      and\n      mul\n      or\n      swap1\n      sstore\n      pop\n        /* \"myroll.sol\":1476:1488  participants */\n      0x01\n        /* \"myroll.sol\":1476:1494  participants.pop() */\n      dup1\n      sload\n      dup1\n      tag_85\n      jumpi\n      tag_86\n      tag_71\n      jump\t// in\n    tag_86:\n    tag_85:\n      0x01\n      swap1\n      sub\n      dup2\n      dup2\n      swap1\n      0x00\n      mstore\n      keccak256(0x00, 0x20)\n      add\n      exp(0x0100, 0x00)\n      dup2\n      sload\n      swap1\n      0xffffffffffffffffffffffffffffffffffffffff\n      mul\n      not\n      and\n      swap1\n      sstore\n      swap1\n      sstore\n        /* \"myroll.sol\":1505:1525  uint thirdPrizeIndex */\n      0x00\n        /* \"myroll.sol\":1539:1551  participants */\n      0x01\n        /* \"myroll.sol\":1539:1558  participants.length */\n      dup1\n      sload\n      swap1\n      pop\n        /* \"myroll.sol\":1528:1536  random() */\n      tag_88\n        /* \"myroll.sol\":1528:1534  random */\n      tag_54\n        /* \"myroll.sol\":1528:1536  random() */\n      jump\t// in\n    tag_88:\n        /* \"myroll.sol\":1528:1558  random() % participants.length */\n      tag_89\n      swap2\n      swap1\n      tag_56\n      jump\t// in\n    tag_89:\n        /* \"myroll.sol\":1505:1558  uint thirdPrizeIndex = random() % participants.length */\n      swap1\n      pop\n        /* \"myroll.sol\":1587:1599  participants */\n      0x01\n        /* \"myroll.sol\":1600:1615  thirdPrizeIndex */\n      dup2\n        /* \"myroll.sol\":1587:1616  participants[thirdPrizeIndex] */\n      dup2\n      sload\n      dup2\n      lt\n      tag_90\n      jumpi\n      tag_91\n      tag_59\n      jump\t// in\n    tag_91:\n    tag_90:\n      swap1\n      0x00\n      mstore\n      keccak256(0x00, 0x20)\n      add\n      0x00\n      swap1\n      sload\n      swap1\n      0x0100\n      exp\n      swap1\n      div\n      0xffffffffffffffffffffffffffffffffffffffff\n      and\n        /* \"myroll.sol\":1568:1584  thirdPrizeWinner */\n      0x04\n      0x00\n        /* \"myroll.sol\":1568:1616  thirdPrizeWinner = participants[thirdPrizeIndex] */\n      0x0100\n      exp\n      dup2\n      sload\n      dup2\n      0xffffffffffffffffffffffffffffffffffffffff\n      mul\n      not\n      and\n      swap1\n      dup4\n      0xffffffffffffffffffffffffffffffffffffffff\n      and\n      mul\n      or\n      swap1\n      sstore\n      pop\n        /* \"myroll.sol\":1632:1699  LotteryDrawn(firstPrizeWinner, secondPrizeWinner, thirdPrizeWinner) */\n      0xa13a63ff3d20f414039d995474dde6f4cd18574f9051cc2d3f38d360a5b0c203\n        /* \"myroll.sol\":1645:1661  firstPrizeWinner */\n      0x02\n      0x00\n      swap1\n      sload\n      swap1\n      0x0100\n      exp\n      swap1\n      div\n      0xffffffffffffffffffffffffffffffffffffffff\n      and\n        /* \"myroll.sol\":1663:1680  secondPrizeWinner */\n      0x03\n      0x00\n      swap1\n      sload\n      swap1\n      0x0100\n      exp\n      swap1\n      div\n      0xffffffffffffffffffffffffffffffffffffffff\n      and\n        /* \"myroll.sol\":1682:1698  thirdPrizeWinner */\n      0x04\n      0x00\n      swap1\n      sload\n      swap1\n      0x0100\n      exp\n      swap1\n      div\n      0xffffffffffffffffffffffffffffffffffffffff\n      and\n        /* \"myroll.sol\":1632:1699  LotteryDrawn(firstPrizeWinner, secondPrizeWinner, thirdPrizeWinner) */\n      mload(0x40)\n      tag_93\n      swap4\n      swap3\n      swap2\n      swap1\n      tag_94\n      jump\t// in\n    tag_93:\n      mload(0x40)\n      dup1\n      swap2\n      sub\n      swap1\n      log1\n        /* \"myroll.sol\":1746:1758  participants */\n      0x01\n      0x00\n        /* \"myroll.sol\":1739:1758  delete participants */\n      tag_95\n      swap2\n      swap1\n      tag_96\n      jump\t// in\n    tag_95:\n        /* \"myroll.sol\":758:1765  {... */\n      pop\n      pop\n      pop\n        /* \"myroll.sol\":727:1765  function drawLottery() private {... */\n      jump\t// out\n        /* \"myroll.sol\":1771:2006  function random() private view returns (uint) {... */\n    tag_54:\n        /* \"myroll.sol\":1811:1815  uint */\n      0x00\n        /* \"myroll.sol\":1949:1965  block.difficulty */\n      prevrandao\n        /* \"myroll.sol\":1967:1982  block.timestamp */\n      timestamp\n        /* \"myroll.sol\":1984:1996  participants */\n      0x01\n        /* \"myroll.sol\":1932:1997  abi.encodePacked(block.difficulty, block.timestamp, participants) */\n      add(0x20, mload(0x40))\n      tag_98\n      swap4\n      swap3\n      swap2\n      swap1\n      tag_99\n      jump\t// in\n    tag_98:\n      mload(0x40)\n      0x20\n      dup2\n      dup4\n      sub\n      sub\n      dup2\n      mstore\n      swap1\n      0x40\n      mstore\n        /* \"myroll.sol\":1922:1998  keccak256(abi.encodePacked(block.difficulty, block.timestamp, participants)) */\n      dup1\n      mload\n      swap1\n      0x20\n      add\n      keccak256\n        /* \"myroll.sol\":1917:1999  uint(keccak256(abi.encodePacked(block.difficulty, block.timestamp, participants))) */\n      0x00\n      shr\n        /* \"myroll.sol\":1910:1999  return uint(keccak256(abi.encodePacked(block.difficulty, block.timestamp, participants))) */\n      swap1\n      pop\n        /* \"myroll.sol\":1771:2006  function random() private view returns (uint) {... */\n      swap1\n      jump\t// out\n    tag_96:\n      pop\n      dup1\n      sload\n      0x00\n      dup3\n      sstore\n      swap1\n      0x00\n      mstore\n      keccak256(0x00, 0x20)\n      swap1\n      dup2\n      add\n      swap1\n      tag_101\n      swap2\n      swap1\n      tag_102\n      jump\t// in\n    tag_101:\n      pop\n      jump\t// out\n    tag_102:\n    tag_103:\n      dup1\n      dup3\n      gt\n      iszero\n      tag_104\n      jumpi\n      0x00\n      dup2\n      0x00\n      swap1\n      sstore\n      pop\n      0x01\n      add\n      jump(tag_103)\n    tag_104:\n      pop\n      swap1\n      jump\t// out\n        /* \"#utility.yul\":88:205   */\n    tag_106:\n        /* \"#utility.yul\":197:198   */\n      0x00\n        /* \"#utility.yul\":194:195   */\n      dup1\n        /* \"#utility.yul\":187:199   */\n      revert\n        /* \"#utility.yul\":334:411   */\n    tag_108:\n        /* \"#utility.yul\":371:378   */\n      0x00\n        /* \"#utility.yul\":400:405   */\n      dup2\n        /* \"#utility.yul\":389:405   */\n      swap1\n      pop\n        /* \"#utility.yul\":334:411   */\n      swap2\n      swap1\n      pop\n      jump\t// out\n        /* \"#utility.yul\":417:539   */\n    tag_109:\n        /* \"#utility.yul\":490:514   */\n      tag_147\n        /* \"#utility.yul\":508:513   */\n      dup2\n        /* \"#utility.yul\":490:514   */\n      tag_108\n      jump\t// in\n    tag_147:\n        /* \"#utility.yul\":483:488   */\n      dup2\n        /* \"#utility.yul\":480:515   */\n      eq\n        /* \"#utility.yul\":470:533   */\n      tag_148\n      jumpi\n        /* \"#utility.yul\":529:530   */\n      0x00\n        /* \"#utility.yul\":526:527   */\n      dup1\n        /* \"#utility.yul\":519:531   */\n      revert\n        /* \"#utility.yul\":470:533   */\n    tag_148:\n        /* \"#utility.yul\":417:539   */\n      pop\n      jump\t// out\n        /* \"#utility.yul\":545:684   */\n    tag_110:\n        /* \"#utility.yul\":591:596   */\n      0x00\n        /* \"#utility.yul\":629:635   */\n      dup2\n        /* \"#utility.yul\":616:636   */\n      calldataload\n        /* \"#utility.yul\":607:636   */\n      swap1\n      pop\n        /* \"#utility.yul\":645:678   */\n      tag_150\n        /* \"#utility.yul\":672:677   */\n      dup2\n        /* \"#utility.yul\":645:678   */\n      tag_109\n      jump\t// in\n    tag_150:\n        /* \"#utility.yul\":545:684   */\n      swap3\n      swap2\n      pop\n      pop\n      jump\t// out\n        /* \"#utility.yul\":690:1019   */\n    tag_13:\n        /* \"#utility.yul\":749:755   */\n      0x00\n        /* \"#utility.yul\":798:800   */\n      0x20\n        /* \"#utility.yul\":786:795   */\n      dup3\n        /* \"#utility.yul\":777:784   */\n      dup5\n        /* \"#utility.yul\":773:796   */\n      sub\n        /* \"#utility.yul\":769:801   */\n      slt\n        /* \"#utility.yul\":766:885   */\n      iszero\n      tag_152\n      jumpi\n        /* \"#utility.yul\":804:883   */\n      tag_153\n      tag_106\n      jump\t// in\n    tag_153:\n        /* \"#utility.yul\":766:885   */\n    tag_152:\n        /* \"#utility.yul\":924:925   */\n      0x00\n        /* \"#utility.yul\":949:1002   */\n      tag_154\n        /* \"#utility.yul\":994:1001   */\n      dup5\n        /* \"#utility.yul\":985:991   */\n      dup3\n        /* \"#utility.yul\":974:983   */\n      dup6\n        /* \"#utility.yul\":970:992   */\n      add\n        /* \"#utility.yul\":949:1002   */\n      tag_110\n      jump\t// in\n    tag_154:\n        /* \"#utility.yul\":939:1002   */\n      swap2\n      pop\n        /* \"#utility.yul\":895:1012   */\n      pop\n        /* \"#utility.yul\":690:1019   */\n      swap3\n      swap2\n      pop\n      pop\n      jump\t// out\n        /* \"#utility.yul\":1025:1151   */\n    tag_111:\n        /* \"#utility.yul\":1062:1069   */\n      0x00\n        /* \"#utility.yul\":1102:1144   */\n      0xffffffffffffffffffffffffffffffffffffffff\n        /* \"#utility.yul\":1095:1100   */\n      dup3\n        /* \"#utility.yul\":1091:1145   */\n      and\n        /* \"#utility.yul\":1080:1145   */\n      swap1\n      pop\n        /* \"#utility.yul\":1025:1151   */\n      swap2\n      swap1\n      pop\n      jump\t// out\n        /* \"#utility.yul\":1157:1253   */\n    tag_112:\n        /* \"#utility.yul\":1194:1201   */\n      0x00\n        /* \"#utility.yul\":1223:1247   */\n      tag_157\n        /* \"#utility.yul\":1241:1246   */\n      dup3\n        /* \"#utility.yul\":1223:1247   */\n      tag_111\n      jump\t// in\n    tag_157:\n        /* \"#utility.yul\":1212:1247   */\n      swap1\n      pop\n        /* \"#utility.yul\":1157:1253   */\n      swap2\n      swap1\n      pop\n      jump\t// out\n        /* \"#utility.yul\":1259:1377   */\n    tag_113:\n        /* \"#utility.yul\":1346:1370   */\n      tag_159\n        /* \"#utility.yul\":1364:1369   */\n      dup2\n        /* \"#utility.yul\":1346:1370   */\n      tag_112\n      jump\t// in\n    tag_159:\n        /* \"#utility.yul\":1341:1344   */\n      dup3\n        /* \"#utility.yul\":1334:1371   */\n      mstore\n        /* \"#utility.yul\":1259:1377   */\n      pop\n      pop\n      jump\t// out\n        /* \"#utility.yul\":1383:1605   */\n    tag_16:\n        /* \"#utility.yul\":1476:1480   */\n      0x00\n        /* \"#utility.yul\":1514:1516   */\n      0x20\n        /* \"#utility.yul\":1503:1512   */\n      dup3\n        /* \"#utility.yul\":1499:1517   */\n      add\n        /* \"#utility.yul\":1491:1517   */\n      swap1\n      pop\n        /* \"#utility.yul\":1527:1598   */\n      tag_161\n        /* \"#utility.yul\":1595:1596   */\n      0x00\n        /* \"#utility.yul\":1584:1593   */\n      dup4\n        /* \"#utility.yul\":1580:1597   */\n      add\n        /* \"#utility.yul\":1571:1577   */\n      dup5\n        /* \"#utility.yul\":1527:1598   */\n      tag_113\n      jump\t// in\n    tag_161:\n        /* \"#utility.yul\":1383:1605   */\n      swap3\n      swap2\n      pop\n      pop\n      jump\t// out\n        /* \"#utility.yul\":1611:1725   */\n    tag_114:\n        /* \"#utility.yul\":1678:1684   */\n      0x00\n        /* \"#utility.yul\":1712:1717   */\n      dup2\n        /* \"#utility.yul\":1706:1718   */\n      mload\n        /* \"#utility.yul\":1696:1718   */\n      swap1\n      pop\n        /* \"#utility.yul\":1611:1725   */\n      swap2\n      swap1\n      pop\n      jump\t// out\n        /* \"#utility.yul\":1731:1915   */\n    tag_115:\n        /* \"#utility.yul\":1830:1841   */\n      0x00\n        /* \"#utility.yul\":1864:1870   */\n      dup3\n        /* \"#utility.yul\":1859:1862   */\n      dup3\n        /* \"#utility.yul\":1852:1871   */\n      mstore\n        /* \"#utility.yul\":1904:1908   */\n      0x20\n        /* \"#utility.yul\":1899:1902   */\n      dup3\n        /* \"#utility.yul\":1895:1909   */\n      add\n        /* \"#utility.yul\":1880:1909   */\n      swap1\n      pop\n        /* \"#utility.yul\":1731:1915   */\n      swap3\n      swap2\n      pop\n      pop\n      jump\t// out\n        /* \"#utility.yul\":1921:2053   */\n    tag_116:\n        /* \"#utility.yul\":1988:1992   */\n      0x00\n        /* \"#utility.yul\":2011:2014   */\n      dup2\n        /* \"#utility.yul\":2003:2014   */\n      swap1\n      pop\n        /* \"#utility.yul\":2041:2045   */\n      0x20\n        /* \"#utility.yul\":2036:2039   */\n      dup3\n        /* \"#utility.yul\":2032:2046   */\n      add\n        /* \"#utility.yul\":2024:2046   */\n      swap1\n      pop\n        /* \"#utility.yul\":1921:2053   */\n      swap2\n      swap1\n      pop\n      jump\t// out\n        /* \"#utility.yul\":2059:2167   */\n    tag_117:\n        /* \"#utility.yul\":2136:2160   */\n      tag_166\n        /* \"#utility.yul\":2154:2159   */\n      dup2\n        /* \"#utility.yul\":2136:2160   */\n      tag_112\n      jump\t// in\n    tag_166:\n        /* \"#utility.yul\":2131:2134   */\n      dup3\n        /* \"#utility.yul\":2124:2161   */\n      mstore\n        /* \"#utility.yul\":2059:2167   */\n      pop\n      pop\n      jump\t// out\n        /* \"#utility.yul\":2173:2352   */\n    tag_118:\n        /* \"#utility.yul\":2242:2252   */\n      0x00\n        /* \"#utility.yul\":2263:2309   */\n      tag_168\n        /* \"#utility.yul\":2305:2308   */\n      dup4\n        /* \"#utility.yul\":2297:2303   */\n      dup4\n        /* \"#utility.yul\":2263:2309   */\n      tag_117\n      jump\t// in\n    tag_168:\n        /* \"#utility.yul\":2341:2345   */\n      0x20\n        /* \"#utility.yul\":2336:2339   */\n      dup4\n        /* \"#utility.yul\":2332:2346   */\n      add\n        /* \"#utility.yul\":2318:2346   */\n      swap1\n      pop\n        /* \"#utility.yul\":2173:2352   */\n      swap3\n      swap2\n      pop\n      pop\n      jump\t// out\n        /* \"#utility.yul\":2358:2471   */\n    tag_119:\n        /* \"#utility.yul\":2428:2432   */\n      0x00\n        /* \"#utility.yul\":2460:2464   */\n      0x20\n        /* \"#utility.yul\":2455:2458   */\n      dup3\n        /* \"#utility.yul\":2451:2465   */\n      add\n        /* \"#utility.yul\":2443:2465   */\n      swap1\n      pop\n        /* \"#utility.yul\":2358:2471   */\n      swap2\n      swap1\n      pop\n      jump\t// out\n        /* \"#utility.yul\":2507:3239   */\n    tag_120:\n        /* \"#utility.yul\":2626:2629   */\n      0x00\n        /* \"#utility.yul\":2655:2709   */\n      tag_171\n        /* \"#utility.yul\":2703:2708   */\n      dup3\n        /* \"#utility.yul\":2655:2709   */\n      tag_114\n      jump\t// in\n    tag_171:\n        /* \"#utility.yul\":2725:2811   */\n      tag_172\n        /* \"#utility.yul\":2804:2810   */\n      dup2\n        /* \"#utility.yul\":2799:2802   */\n      dup6\n        /* \"#utility.yul\":2725:2811   */\n      tag_115\n      jump\t// in\n    tag_172:\n        /* \"#utility.yul\":2718:2811   */\n      swap4\n      pop\n        /* \"#utility.yul\":2835:2891   */\n      tag_173\n        /* \"#utility.yul\":2885:2890   */\n      dup4\n        /* \"#utility.yul\":2835:2891   */\n      tag_116\n      jump\t// in\n    tag_173:\n        /* \"#utility.yul\":2914:2921   */\n      dup1\n        /* \"#utility.yul\":2945:2946   */\n      0x00\n        /* \"#utility.yul\":2930:3214   */\n    tag_174:\n        /* \"#utility.yul\":2955:2961   */\n      dup4\n        /* \"#utility.yul\":2952:2953   */\n      dup2\n        /* \"#utility.yul\":2949:2962   */\n      lt\n        /* \"#utility.yul\":2930:3214   */\n      iszero\n      tag_176\n      jumpi\n        /* \"#utility.yul\":3031:3037   */\n      dup2\n        /* \"#utility.yul\":3025:3038   */\n      mload\n        /* \"#utility.yul\":3058:3121   */\n      tag_177\n        /* \"#utility.yul\":3117:3120   */\n      dup9\n        /* \"#utility.yul\":3102:3115   */\n      dup3\n        /* \"#utility.yul\":3058:3121   */\n      tag_118\n      jump\t// in\n    tag_177:\n        /* \"#utility.yul\":3051:3121   */\n      swap8\n      pop\n        /* \"#utility.yul\":3144:3204   */\n      tag_178\n        /* \"#utility.yul\":3197:3203   */\n      dup4\n        /* \"#utility.yul\":3144:3204   */\n      tag_119\n      jump\t// in\n    tag_178:\n        /* \"#utility.yul\":3134:3204   */\n      swap3\n      pop\n        /* \"#utility.yul\":2990:3214   */\n      pop\n        /* \"#utility.yul\":2977:2978   */\n      0x01\n        /* \"#utility.yul\":2974:2975   */\n      dup2\n        /* \"#utility.yul\":2970:2979   */\n      add\n        /* \"#utility.yul\":2965:2979   */\n      swap1\n      pop\n        /* \"#utility.yul\":2930:3214   */\n      jump(tag_174)\n    tag_176:\n        /* \"#utility.yul\":2934:2948   */\n      pop\n        /* \"#utility.yul\":3230:3233   */\n      dup6\n        /* \"#utility.yul\":3223:3233   */\n      swap4\n      pop\n        /* \"#utility.yul\":2631:3239   */\n      pop\n      pop\n      pop\n        /* \"#utility.yul\":2507:3239   */\n      swap3\n      swap2\n      pop\n      pop\n      jump\t// out\n        /* \"#utility.yul\":3245:3618   */\n    tag_26:\n        /* \"#utility.yul\":3388:3392   */\n      0x00\n        /* \"#utility.yul\":3426:3428   */\n      0x20\n        /* \"#utility.yul\":3415:3424   */\n      dup3\n        /* \"#utility.yul\":3411:3429   */\n      add\n        /* \"#utility.yul\":3403:3429   */\n      swap1\n      pop\n        /* \"#utility.yul\":3475:3484   */\n      dup2\n        /* \"#utility.yul\":3469:3473   */\n      dup2\n        /* \"#utility.yul\":3465:3485   */\n      sub\n        /* \"#utility.yul\":3461:3462   */\n      0x00\n        /* \"#utility.yul\":3450:3459   */\n      dup4\n        /* \"#utility.yul\":3446:3463   */\n      add\n        /* \"#utility.yul\":3439:3486   */\n      mstore\n        /* \"#utility.yul\":3503:3611   */\n      tag_180\n        /* \"#utility.yul\":3606:3610   */\n      dup2\n        /* \"#utility.yul\":3597:3603   */\n      dup5\n        /* \"#utility.yul\":3503:3611   */\n      tag_120\n      jump\t// in\n    tag_180:\n        /* \"#utility.yul\":3495:3611   */\n      swap1\n      pop\n        /* \"#utility.yul\":3245:3618   */\n      swap3\n      swap2\n      pop\n      pop\n      jump\t// out\n        /* \"#utility.yul\":3624:3793   */\n    tag_121:\n        /* \"#utility.yul\":3708:3719   */\n      0x00\n        /* \"#utility.yul\":3742:3748   */\n      dup3\n        /* \"#utility.yul\":3737:3740   */\n      dup3\n        /* \"#utility.yul\":3730:3749   */\n      mstore\n        /* \"#utility.yul\":3782:3786   */\n      0x20\n        /* \"#utility.yul\":3777:3780   */\n      dup3\n        /* \"#utility.yul\":3773:3787   */\n      add\n        /* \"#utility.yul\":3758:3787   */\n      swap1\n      pop\n        /* \"#utility.yul\":3624:3793   */\n      swap3\n      swap2\n      pop\n      pop\n      jump\t// out\n        /* \"#utility.yul\":3799:3964   */\n    tag_122:\n        /* \"#utility.yul\":3939:3956   */\n      0x4c6f74746572792069732066756c6c0000000000000000000000000000000000\n        /* \"#utility.yul\":3935:3936   */\n      0x00\n        /* \"#utility.yul\":3927:3933   */\n      dup3\n        /* \"#utility.yul\":3923:3937   */\n      add\n        /* \"#utility.yul\":3916:3957   */\n      mstore\n        /* \"#utility.yul\":3799:3964   */\n      pop\n      jump\t// out\n        /* \"#utility.yul\":3970:4336   */\n    tag_123:\n        /* \"#utility.yul\":4112:4115   */\n      0x00\n        /* \"#utility.yul\":4133:4200   */\n      tag_184\n        /* \"#utility.yul\":4197:4199   */\n      0x0f\n        /* \"#utility.yul\":4192:4195   */\n      dup4\n        /* \"#utility.yul\":4133:4200   */\n      tag_121\n      jump\t// in\n    tag_184:\n        /* \"#utility.yul\":4126:4200   */\n      swap2\n      pop\n        /* \"#utility.yul\":4209:4302   */\n      tag_185\n        /* \"#utility.yul\":4298:4301   */\n      dup3\n        /* \"#utility.yul\":4209:4302   */\n      tag_122\n      jump\t// in\n    tag_185:\n        /* \"#utility.yul\":4327:4329   */\n      0x20\n        /* \"#utility.yul\":4322:4325   */\n      dup3\n        /* \"#utility.yul\":4318:4330   */\n      add\n        /* \"#utility.yul\":4311:4330   */\n      swap1\n      pop\n        /* \"#utility.yul\":3970:4336   */\n      swap2\n      swap1\n      pop\n      jump\t// out\n        /* \"#utility.yul\":4342:4761   */\n    tag_43:\n        /* \"#utility.yul\":4508:4512   */\n      0x00\n        /* \"#utility.yul\":4546:4548   */\n      0x20\n        /* \"#utility.yul\":4535:4544   */\n      dup3\n        /* \"#utility.yul\":4531:4549   */\n      add\n        /* \"#utility.yul\":4523:4549   */\n      swap1\n      pop\n        /* \"#utility.yul\":4595:4604   */\n      dup2\n        /* \"#utility.yul\":4589:4593   */\n      dup2\n        /* \"#utility.yul\":4585:4605   */\n      sub\n        /* \"#utility.yul\":4581:4582   */\n      0x00\n        /* \"#utility.yul\":4570:4579   */\n      dup4\n        /* \"#utility.yul\":4566:4583   */\n      add\n        /* \"#utility.yul\":4559:4606   */\n      mstore\n        /* \"#utility.yul\":4623:4754   */\n      tag_187\n        /* \"#utility.yul\":4749:4753   */\n      dup2\n        /* \"#utility.yul\":4623:4754   */\n      tag_123\n      jump\t// in\n    tag_187:\n        /* \"#utility.yul\":4615:4754   */\n      swap1\n      pop\n        /* \"#utility.yul\":4342:4761   */\n      swap2\n      swap1\n      pop\n      jump\t// out\n        /* \"#utility.yul\":4767:4993   */\n    tag_124:\n        /* \"#utility.yul\":4907:4941   */\n      0x4e6f7420656e6f756768207061727469636970616e747320746f206472617720\n        /* \"#utility.yul\":4903:4904   */\n      0x00\n        /* \"#utility.yul\":4895:4901   */\n      dup3\n        /* \"#utility.yul\":4891:4905   */\n      add\n        /* \"#utility.yul\":4884:4942   */\n      mstore\n        /* \"#utility.yul\":4976:4985   */\n      0x6c6f747465727900000000000000000000000000000000000000000000000000\n        /* \"#utility.yul\":4971:4973   */\n      0x20\n        /* \"#utility.yul\":4963:4969   */\n      dup3\n        /* \"#utility.yul\":4959:4974   */\n      add\n        /* \"#utility.yul\":4952:4986   */\n      mstore\n        /* \"#utility.yul\":4767:4993   */\n      pop\n      jump\t// out\n        /* \"#utility.yul\":4999:5365   */\n    tag_125:\n        /* \"#utility.yul\":5141:5144   */\n      0x00\n        /* \"#utility.yul\":5162:5229   */\n      tag_190\n        /* \"#utility.yul\":5226:5228   */\n      0x27\n        /* \"#utility.yul\":5221:5224   */\n      dup4\n        /* \"#utility.yul\":5162:5229   */\n      tag_121\n      jump\t// in\n    tag_190:\n        /* \"#utility.yul\":5155:5229   */\n      swap2\n      pop\n        /* \"#utility.yul\":5238:5331   */\n      tag_191\n        /* \"#utility.yul\":5327:5330   */\n      dup3\n        /* \"#utility.yul\":5238:5331   */\n      tag_124\n      jump\t// in\n    tag_191:\n        /* \"#utility.yul\":5356:5358   */\n      0x40\n        /* \"#utility.yul\":5351:5354   */\n      dup3\n        /* \"#utility.yul\":5347:5359   */\n      add\n        /* \"#utility.yul\":5340:5359   */\n      swap1\n      pop\n        /* \"#utility.yul\":4999:5365   */\n      swap2\n      swap1\n      pop\n      jump\t// out\n        /* \"#utility.yul\":5371:5790   */\n    tag_52:\n        /* \"#utility.yul\":5537:5541   */\n      0x00\n        /* \"#utility.yul\":5575:5577   */\n      0x20\n        /* \"#utility.yul\":5564:5573   */\n      dup3\n        /* \"#utility.yul\":5560:5578   */\n      add\n        /* \"#utility.yul\":5552:5578   */\n      swap1\n      pop\n        /* \"#utility.yul\":5624:5633   */\n      dup2\n        /* \"#utility.yul\":5618:5622   */\n      dup2\n        /* \"#utility.yul\":5614:5634   */\n      sub\n        /* \"#utility.yul\":5610:5611   */\n      0x00\n        /* \"#utility.yul\":5599:5608   */\n      dup4\n        /* \"#utility.yul\":5595:5612   */\n      add\n        /* \"#utility.yul\":5588:5635   */\n      mstore\n        /* \"#utility.yul\":5652:5783   */\n      tag_193\n        /* \"#utility.yul\":5778:5782   */\n      dup2\n        /* \"#utility.yul\":5652:5783   */\n      tag_125\n      jump\t// in\n    tag_193:\n        /* \"#utility.yul\":5644:5783   */\n      swap1\n      pop\n        /* \"#utility.yul\":5371:5790   */\n      swap2\n      swap1\n      pop\n      jump\t// out\n        /* \"#utility.yul\":5796:5976   */\n    tag_126:\n        /* \"#utility.yul\":5844:5921   */\n      0x4e487b7100000000000000000000000000000000000000000000000000000000\n        /* \"#utility.yul\":5841:5842   */\n      0x00\n        /* \"#utility.yul\":5834:5922   */\n      mstore\n        /* \"#utility.yul\":5941:5945   */\n      0x12\n        /* \"#utility.yul\":5938:5939   */\n      0x04\n        /* \"#utility.yul\":5931:5946   */\n      mstore\n        /* \"#utility.yul\":5965:5969   */\n      0x24\n        /* \"#utility.yul\":5962:5963   */\n      0x00\n        /* \"#utility.yul\":5955:5970   */\n      revert\n        /* \"#utility.yul\":5982:6158   */\n    tag_56:\n        /* \"#utility.yul\":6014:6015   */\n      0x00\n        /* \"#utility.yul\":6031:6051   */\n      tag_196\n        /* \"#utility.yul\":6049:6050   */\n      dup3\n        /* \"#utility.yul\":6031:6051   */\n      tag_108\n      jump\t// in\n    tag_196:\n        /* \"#utility.yul\":6026:6051   */\n      swap2\n      pop\n        /* \"#utility.yul\":6065:6085   */\n      tag_197\n        /* \"#utility.yul\":6083:6084   */\n      dup4\n        /* \"#utility.yul\":6065:6085   */\n      tag_108\n      jump\t// in\n    tag_197:\n        /* \"#utility.yul\":6060:6085   */\n      swap3\n      pop\n        /* \"#utility.yul\":6104:6105   */\n      dup3\n        /* \"#utility.yul\":6094:6129   */\n      tag_198\n      jumpi\n        /* \"#utility.yul\":6109:6127   */\n      tag_199\n      tag_126\n      jump\t// in\n    tag_199:\n        /* \"#utility.yul\":6094:6129   */\n    tag_198:\n        /* \"#utility.yul\":6150:6151   */\n      dup3\n        /* \"#utility.yul\":6147:6148   */\n      dup3\n        /* \"#utility.yul\":6143:6152   */\n      mod\n        /* \"#utility.yul\":6138:6152   */\n      swap1\n      pop\n        /* \"#utility.yul\":5982:6158   */\n      swap3\n      swap2\n      pop\n      pop\n      jump\t// out\n        /* \"#utility.yul\":6164:6344   */\n    tag_59:\n        /* \"#utility.yul\":6212:6289   */\n      0x4e487b7100000000000000000000000000000000000000000000000000000000\n        /* \"#utility.yul\":6209:6210   */\n      0x00\n        /* \"#utility.yul\":6202:6290   */\n      mstore\n        /* \"#utility.yul\":6309:6313   */\n      0x32\n        /* \"#utility.yul\":6306:6307   */\n      0x04\n        /* \"#utility.yul\":6299:6314   */\n      mstore\n        /* \"#utility.yul\":6333:6337   */\n      0x24\n        /* \"#utility.yul\":6330:6331   */\n      0x00\n        /* \"#utility.yul\":6323:6338   */\n      revert\n        /* \"#utility.yul\":6350:6530   */\n    tag_127:\n        /* \"#utility.yul\":6398:6475   */\n      0x4e487b7100000000000000000000000000000000000000000000000000000000\n        /* \"#utility.yul\":6395:6396   */\n      0x00\n        /* \"#utility.yul\":6388:6476   */\n      mstore\n        /* \"#utility.yul\":6495:6499   */\n      0x11\n        /* \"#utility.yul\":6492:6493   */\n      0x04\n        /* \"#utility.yul\":6485:6500   */\n      mstore\n        /* \"#utility.yul\":6519:6523   */\n      0x24\n        /* \"#utility.yul\":6516:6517   */\n      0x00\n        /* \"#utility.yul\":6509:6524   */\n      revert\n        /* \"#utility.yul\":6536:6730   */\n    tag_62:\n        /* \"#utility.yul\":6576:6580   */\n      0x00\n        /* \"#utility.yul\":6596:6616   */\n      tag_203\n        /* \"#utility.yul\":6614:6615   */\n      dup3\n        /* \"#utility.yul\":6596:6616   */\n      tag_108\n      jump\t// in\n    tag_203:\n        /* \"#utility.yul\":6591:6616   */\n      swap2\n      pop\n        /* \"#utility.yul\":6630:6650   */\n      tag_204\n        /* \"#utility.yul\":6648:6649   */\n      dup4\n        /* \"#utility.yul\":6630:6650   */\n      tag_108\n      jump\t// in\n    tag_204:\n        /* \"#utility.yul\":6625:6650   */\n      swap3\n      pop\n        /* \"#utility.yul\":6674:6675   */\n      dup3\n        /* \"#utility.yul\":6671:6672   */\n      dup3\n        /* \"#utility.yul\":6667:6676   */\n      sub\n        /* \"#utility.yul\":6659:6676   */\n      swap1\n      pop\n        /* \"#utility.yul\":6698:6699   */\n      dup2\n        /* \"#utility.yul\":6692:6696   */\n      dup2\n        /* \"#utility.yul\":6689:6700   */\n      gt\n        /* \"#utility.yul\":6686:6723   */\n      iszero\n      tag_205\n      jumpi\n        /* \"#utility.yul\":6703:6721   */\n      tag_206\n      tag_127\n      jump\t// in\n    tag_206:\n        /* \"#utility.yul\":6686:6723   */\n    tag_205:\n        /* \"#utility.yul\":6536:6730   */\n      swap3\n      swap2\n      pop\n      pop\n      jump\t// out\n        /* \"#utility.yul\":6736:6916   */\n    tag_71:\n        /* \"#utility.yul\":6784:6861   */\n      0x4e487b7100000000000000000000000000000000000000000000000000000000\n        /* \"#utility.yul\":6781:6782   */\n      0x00\n        /* \"#utility.yul\":6774:6862   */\n      mstore\n        /* \"#utility.yul\":6881:6885   */\n      0x31\n        /* \"#utility.yul\":6878:6879   */\n      0x04\n        /* \"#utility.yul\":6871:6886   */\n      mstore\n        /* \"#utility.yul\":6905:6909   */\n      0x24\n        /* \"#utility.yul\":6902:6903   */\n      0x00\n        /* \"#utility.yul\":6895:6910   */\n      revert\n        /* \"#utility.yul\":6922:7364   */\n    tag_94:\n        /* \"#utility.yul\":7071:7075   */\n      0x00\n        /* \"#utility.yul\":7109:7111   */\n      0x60\n        /* \"#utility.yul\":7098:7107   */\n      dup3\n        /* \"#utility.yul\":7094:7112   */\n      add\n        /* \"#utility.yul\":7086:7112   */\n      swap1\n      pop\n        /* \"#utility.yul\":7122:7193   */\n      tag_209\n        /* \"#utility.yul\":7190:7191   */\n      0x00\n        /* \"#utility.yul\":7179:7188   */\n      dup4\n        /* \"#utility.yul\":7175:7192   */\n      add\n        /* \"#utility.yul\":7166:7172   */\n      dup7\n        /* \"#utility.yul\":7122:7193   */\n      tag_113\n      jump\t// in\n    tag_209:\n        /* \"#utility.yul\":7203:7275   */\n      tag_210\n        /* \"#utility.yul\":7271:7273   */\n      0x20\n        /* \"#utility.yul\":7260:7269   */\n      dup4\n        /* \"#utility.yul\":7256:7274   */\n      add\n        /* \"#utility.yul\":7247:7253   */\n      dup6\n        /* \"#utility.yul\":7203:7275   */\n      tag_113\n      jump\t// in\n    tag_210:\n        /* \"#utility.yul\":7285:7357   */\n      tag_211\n        /* \"#utility.yul\":7353:7355   */\n      0x40\n        /* \"#utility.yul\":7342:7351   */\n      dup4\n        /* \"#utility.yul\":7338:7356   */\n      add\n        /* \"#utility.yul\":7329:7335   */\n      dup5\n        /* \"#utility.yul\":7285:7357   */\n      tag_113\n      jump\t// in\n    tag_211:\n        /* \"#utility.yul\":6922:7364   */\n      swap5\n      swap4\n      pop\n      pop\n      pop\n      pop\n      jump\t// out\n        /* \"#utility.yul\":7370:7449   */\n    tag_128:\n        /* \"#utility.yul\":7409:7416   */\n      0x00\n        /* \"#utility.yul\":7438:7443   */\n      dup2\n        /* \"#utility.yul\":7427:7443   */\n      swap1\n      pop\n        /* \"#utility.yul\":7370:7449   */\n      swap2\n      swap1\n      pop\n      jump\t// out\n        /* \"#utility.yul\":7455:7612   */\n    tag_129:\n        /* \"#utility.yul\":7560:7605   */\n      tag_214\n        /* \"#utility.yul\":7580:7604   */\n      tag_215\n        /* \"#utility.yul\":7598:7603   */\n      dup3\n        /* \"#utility.yul\":7580:7604   */\n      tag_108\n      jump\t// in\n    tag_215:\n        /* \"#utility.yul\":7560:7605   */\n      tag_128\n      jump\t// in\n    tag_214:\n        /* \"#utility.yul\":7555:7558   */\n      dup3\n        /* \"#utility.yul\":7548:7606   */\n      mstore\n        /* \"#utility.yul\":7455:7612   */\n      pop\n      pop\n      jump\t// out\n        /* \"#utility.yul\":7618:7729   */\n    tag_130:\n        /* \"#utility.yul\":7682:7688   */\n      0x00\n        /* \"#utility.yul\":7716:7721   */\n      dup2\n        /* \"#utility.yul\":7710:7722   */\n      sload\n        /* \"#utility.yul\":7700:7722   */\n      swap1\n      pop\n        /* \"#utility.yul\":7618:7729   */\n      swap2\n      swap1\n      pop\n      jump\t// out\n        /* \"#utility.yul\":7735:7898   */\n    tag_131:\n        /* \"#utility.yul\":7852:7863   */\n      0x00\n        /* \"#utility.yul\":7889:7892   */\n      dup2\n        /* \"#utility.yul\":7874:7892   */\n      swap1\n      pop\n        /* \"#utility.yul\":7735:7898   */\n      swap3\n      swap2\n      pop\n      pop\n      jump\t// out\n        /* \"#utility.yul\":7904:8060   */\n    tag_132:\n        /* \"#utility.yul\":7968:7972   */\n      0x00\n        /* \"#utility.yul\":7991:7994   */\n      dup2\n        /* \"#utility.yul\":7983:7994   */\n      swap1\n      pop\n        /* \"#utility.yul\":8014:8017   */\n      dup2\n        /* \"#utility.yul\":8011:8012   */\n      0x00\n        /* \"#utility.yul\":8004:8018   */\n      mstore\n        /* \"#utility.yul\":8048:8052   */\n      0x20\n        /* \"#utility.yul\":8045:8046   */\n      0x00\n        /* \"#utility.yul\":8035:8053   */\n      keccak256\n        /* \"#utility.yul\":8027:8053   */\n      swap1\n      pop\n        /* \"#utility.yul\":7904:8060   */\n      swap2\n      swap1\n      pop\n      jump\t// out\n        /* \"#utility.yul\":8066:8182   */\n    tag_133:\n        /* \"#utility.yul\":8151:8175   */\n      tag_220\n        /* \"#utility.yul\":8169:8174   */\n      dup2\n        /* \"#utility.yul\":8151:8175   */\n      tag_112\n      jump\t// in\n    tag_220:\n        /* \"#utility.yul\":8146:8149   */\n      dup3\n        /* \"#utility.yul\":8139:8176   */\n      mstore\n        /* \"#utility.yul\":8066:8182   */\n      pop\n      pop\n      jump\t// out\n        /* \"#utility.yul\":8188:8383   */\n    tag_134:\n        /* \"#utility.yul\":8265:8275   */\n      0x00\n        /* \"#utility.yul\":8286:8340   */\n      tag_222\n        /* \"#utility.yul\":8336:8339   */\n      dup4\n        /* \"#utility.yul\":8328:8334   */\n      dup4\n        /* \"#utility.yul\":8286:8340   */\n      tag_133\n      jump\t// in\n    tag_222:\n        /* \"#utility.yul\":8372:8376   */\n      0x20\n        /* \"#utility.yul\":8367:8370   */\n      dup4\n        /* \"#utility.yul\":8363:8377   */\n      add\n        /* \"#utility.yul\":8349:8377   */\n      swap1\n      pop\n        /* \"#utility.yul\":8188:8383   */\n      swap3\n      swap2\n      pop\n      pop\n      jump\t// out\n        /* \"#utility.yul\":8389:8491   */\n    tag_135:\n        /* \"#utility.yul\":8431:8439   */\n      0x00\n        /* \"#utility.yul\":8478:8483   */\n      dup2\n        /* \"#utility.yul\":8475:8476   */\n      0x00\n        /* \"#utility.yul\":8471:8484   */\n      shr\n        /* \"#utility.yul\":8450:8484   */\n      swap1\n      pop\n        /* \"#utility.yul\":8389:8491   */\n      swap2\n      swap1\n      pop\n      jump\t// out\n        /* \"#utility.yul\":8497:8636   */\n    tag_136:\n        /* \"#utility.yul\":8547:8554   */\n      0x00\n        /* \"#utility.yul\":8587:8629   */\n      0xffffffffffffffffffffffffffffffffffffffff\n        /* \"#utility.yul\":8580:8585   */\n      dup3\n        /* \"#utility.yul\":8576:8630   */\n      and\n        /* \"#utility.yul\":8565:8630   */\n      swap1\n      pop\n        /* \"#utility.yul\":8497:8636   */\n      swap2\n      swap1\n      pop\n      jump\t// out\n        /* \"#utility.yul\":8642:8808   */\n    tag_137:\n        /* \"#utility.yul\":8711:8716   */\n      0x00\n        /* \"#utility.yul\":8736:8802   */\n      tag_226\n        /* \"#utility.yul\":8767:8801   */\n      tag_227\n        /* \"#utility.yul\":8790:8800   */\n      dup4\n        /* \"#utility.yul\":8767:8801   */\n      tag_135\n      jump\t// in\n    tag_227:\n        /* \"#utility.yul\":8736:8802   */\n      tag_136\n      jump\t// in\n    tag_226:\n        /* \"#utility.yul\":8727:8802   */\n      swap1\n      pop\n        /* \"#utility.yul\":8642:8808   */\n      swap2\n      swap1\n      pop\n      jump\t// out\n        /* \"#utility.yul\":8814:8958   */\n    tag_138:\n        /* \"#utility.yul\":8869:8874   */\n      0x00\n        /* \"#utility.yul\":8894:8951   */\n      tag_229\n        /* \"#utility.yul\":8945:8949   */\n      dup3\n        /* \"#utility.yul\":8939:8950   */\n      sload\n        /* \"#utility.yul\":8894:8951   */\n      tag_137\n      jump\t// in\n    tag_229:\n        /* \"#utility.yul\":8885:8951   */\n      swap1\n      pop\n        /* \"#utility.yul\":8814:8958   */\n      swap2\n      swap1\n      pop\n      jump\t// out\n        /* \"#utility.yul\":8964:9074   */\n    tag_139:\n        /* \"#utility.yul\":9031:9035   */\n      0x00\n        /* \"#utility.yul\":9063:9067   */\n      0x01\n        /* \"#utility.yul\":9058:9061   */\n      dup3\n        /* \"#utility.yul\":9054:9068   */\n      add\n        /* \"#utility.yul\":9046:9068   */\n      swap1\n      pop\n        /* \"#utility.yul\":8964:9074   */\n      swap2\n      swap1\n      pop\n      jump\t// out\n        /* \"#utility.yul\":9110:9905   */\n    tag_140:\n        /* \"#utility.yul\":9244:9247   */\n      0x00\n        /* \"#utility.yul\":9273:9324   */\n      tag_232\n        /* \"#utility.yul\":9318:9323   */\n      dup3\n        /* \"#utility.yul\":9273:9324   */\n      tag_130\n      jump\t// in\n    tag_232:\n        /* \"#utility.yul\":9340:9444   */\n      tag_233\n        /* \"#utility.yul\":9437:9443   */\n      dup2\n        /* \"#utility.yul\":9432:9435   */\n      dup6\n        /* \"#utility.yul\":9340:9444   */\n      tag_131\n      jump\t// in\n    tag_233:\n        /* \"#utility.yul\":9333:9444   */\n      swap4\n      pop\n        /* \"#utility.yul\":9468:9521   */\n      tag_234\n        /* \"#utility.yul\":9515:9520   */\n      dup4\n        /* \"#utility.yul\":9468:9521   */\n      tag_132\n      jump\t// in\n    tag_234:\n        /* \"#utility.yul\":9544:9551   */\n      dup1\n        /* \"#utility.yul\":9575:9576   */\n      0x00\n        /* \"#utility.yul\":9560:9880   */\n    tag_235:\n        /* \"#utility.yul\":9585:9591   */\n      dup4\n        /* \"#utility.yul\":9582:9583   */\n      dup2\n        /* \"#utility.yul\":9579:9592   */\n      lt\n        /* \"#utility.yul\":9560:9880   */\n      iszero\n      tag_237\n      jumpi\n        /* \"#utility.yul\":9655:9699   */\n      tag_238\n        /* \"#utility.yul\":9692:9698   */\n      dup3\n        /* \"#utility.yul\":9655:9699   */\n      tag_138\n      jump\t// in\n    tag_238:\n        /* \"#utility.yul\":9719:9790   */\n      tag_239\n        /* \"#utility.yul\":9786:9789   */\n      dup9\n        /* \"#utility.yul\":9771:9784   */\n      dup3\n        /* \"#utility.yul\":9719:9790   */\n      tag_134\n      jump\t// in\n    tag_239:\n        /* \"#utility.yul\":9712:9790   */\n      swap8\n      pop\n        /* \"#utility.yul\":9813:9870   */\n      tag_240\n        /* \"#utility.yul\":9863:9869   */\n      dup4\n        /* \"#utility.yul\":9813:9870   */\n      tag_139\n      jump\t// in\n    tag_240:\n        /* \"#utility.yul\":9803:9870   */\n      swap3\n      pop\n        /* \"#utility.yul\":9620:9880   */\n      pop\n        /* \"#utility.yul\":9607:9608   */\n      0x01\n        /* \"#utility.yul\":9604:9605   */\n      dup2\n        /* \"#utility.yul\":9600:9609   */\n      add\n        /* \"#utility.yul\":9595:9609   */\n      swap1\n      pop\n        /* \"#utility.yul\":9560:9880   */\n      jump(tag_235)\n    tag_237:\n        /* \"#utility.yul\":9564:9578   */\n      pop\n        /* \"#utility.yul\":9896:9899   */\n      dup6\n        /* \"#utility.yul\":9889:9899   */\n      swap4\n      pop\n        /* \"#utility.yul\":9249:9905   */\n      pop\n      pop\n      pop\n        /* \"#utility.yul\":9110:9905   */\n      swap3\n      swap2\n      pop\n      pop\n      jump\t// out\n        /* \"#utility.yul\":9911:10522   */\n    tag_99:\n        /* \"#utility.yul\":10126:10129   */\n      0x00\n        /* \"#utility.yul\":10141:10216   */\n      tag_242\n        /* \"#utility.yul\":10212:10215   */\n      dup3\n        /* \"#utility.yul\":10203:10209   */\n      dup7\n        /* \"#utility.yul\":10141:10216   */\n      tag_129\n      jump\t// in\n    tag_242:\n        /* \"#utility.yul\":10241:10243   */\n      0x20\n        /* \"#utility.yul\":10236:10239   */\n      dup3\n        /* \"#utility.yul\":10232:10244   */\n      add\n        /* \"#utility.yul\":10225:10244   */\n      swap2\n      pop\n        /* \"#utility.yul\":10254:10329   */\n      tag_243\n        /* \"#utility.yul\":10325:10328   */\n      dup3\n        /* \"#utility.yul\":10316:10322   */\n      dup6\n        /* \"#utility.yul\":10254:10329   */\n      tag_129\n      jump\t// in\n    tag_243:\n        /* \"#utility.yul\":10354:10356   */\n      0x20\n        /* \"#utility.yul\":10349:10352   */\n      dup3\n        /* \"#utility.yul\":10345:10357   */\n      add\n        /* \"#utility.yul\":10338:10357   */\n      swap2\n      pop\n        /* \"#utility.yul\":10374:10496   */\n      tag_244\n        /* \"#utility.yul\":10492:10495   */\n      dup3\n        /* \"#utility.yul\":10483:10489   */\n      dup5\n        /* \"#utility.yul\":10374:10496   */\n      tag_140\n      jump\t// in\n    tag_244:\n        /* \"#utility.yul\":10367:10496   */\n      swap2\n      pop\n        /* \"#utility.yul\":10513:10516   */\n      dup2\n        /* \"#utility.yul\":10506:10516   */\n      swap1\n      pop\n        /* \"#utility.yul\":9911:10522   */\n      swap5\n      swap4\n      pop\n      pop\n      pop\n      pop\n      jump\t// out\n\n    auxdata: 0xa2646970667358221220bd434c676fe4e1c88d00e778e8266abe5b81e6dae4510183857807fc1c90265c64736f6c634300081a0033\n}\n",
				"bytecode": {
					"linkReferences": {},
					"object": "6080604052348015600e575f80fd5b50335f806101000a81548173ffffffffffffffffffffffffffffffffffffffff021916908373ffffffffffffffffffffffffffffffffffffffff160217905550610e168061005b5f395ff3fe608060405234801561000f575f80fd5b506004361061007b575f3560e01c80635aa68ac0116100595780635aa68ac0146100eb5780639be6ae6414610109578063b3d6426814610127578063c1af5785146101455761007b565b806335c1d3491461007f57806342a3e93f146100af578063481c6a75146100cd575b5f80fd5b610099600480360381019061009491906108cc565b61014f565b6040516100a69190610936565b60405180910390f35b6100b761018a565b6040516100c49190610936565b60405180910390f35b6100d56101af565b6040516100e29190610936565b60405180910390f35b6100f36101d2565b6040516101009190610a06565b60405180910390f35b61011161025d565b60405161011e9190610936565b60405180910390f35b61012f610282565b60405161013c9190610936565b60405180910390f35b61014d6102a7565b005b6001818154811061015e575f80fd5b905f5260205f20015f915054906101000a900473ffffffffffffffffffffffffffffffffffffffff1681565b60025f9054906101000a900473ffffffffffffffffffffffffffffffffffffffff1681565b5f8054906101000a900473ffffffffffffffffffffffffffffffffffffffff1681565b6060600180548060200260200160405190810160405280929190818152602001828054801561025357602002820191905f5260205f20905b815f9054906101000a900473ffffffffffffffffffffffffffffffffffffffff1673ffffffffffffffffffffffffffffffffffffffff168152602001906001019080831161020a575b5050505050905090565b60045f9054906101000a900473ffffffffffffffffffffffffffffffffffffffff1681565b60035f9054906101000a900473ffffffffffffffffffffffffffffffffffffffff1681565b6007600180549050106102ef576040517f08c379a00000000000000000000000000000000000000000000000000000000081526004016102e690610a80565b60405180910390fd5b600133908060018154018082558091505060019003905f5260205f20015f9091909190916101000a81548173ffffffffffffffffffffffffffffffffffffffff021916908373ffffffffffffffffffffffffffffffffffffffff1602179055507f4c72b57c1ca715219cf2c7be9edc8a3ea19dfb9a76fb7a05e2a8062a027ee9703360405161037e9190610936565b60405180910390a160076001805490500361039c5761039b61039e565b5b565b6007600180549050146103e6576040517f08c379a00000000000000000000000000000000000000000000000000000000081526004016103dd90610b0e565b60405180910390fd5b5f6001805490506103f5610828565b6103ff9190610b59565b90506001818154811061041557610414610b89565b5b905f5260205f20015f9054906101000a900473ffffffffffffffffffffffffffffffffffffffff1660025f6101000a81548173ffffffffffffffffffffffffffffffffffffffff021916908373ffffffffffffffffffffffffffffffffffffffff160217905550600180808054905061048e9190610be3565b8154811061049f5761049e610b89565b5b905f5260205f20015f9054906101000a900473ffffffffffffffffffffffffffffffffffffffff16600182815481106104db576104da610b89565b5b905f5260205f20015f6101000a81548173ffffffffffffffffffffffffffffffffffffffff021916908373ffffffffffffffffffffffffffffffffffffffff160217905550600180548061053257610531610c16565b5b600190038181905f5260205f20015f6101000a81549073ffffffffffffffffffffffffffffffffffffffff021916905590555f600180549050610573610828565b61057d9190610b59565b90506001818154811061059357610592610b89565b5b905f5260205f20015f9054906101000a900473ffffffffffffffffffffffffffffffffffffffff1660035f6101000a81548173ffffffffffffffffffffffffffffffffffffffff021916908373ffffffffffffffffffffffffffffffffffffffff160217905550600180808054905061060c9190610be3565b8154811061061d5761061c610b89565b5b905f5260205f20015f9054906101000a900473ffffffffffffffffffffffffffffffffffffffff166001828154811061065957610658610b89565b5b905f5260205f20015f6101000a81548173ffffffffffffffffffffffffffffffffffffffff021916908373ffffffffffffffffffffffffffffffffffffffff16021790555060018054806106b0576106af610c16565b5b600190038181905f5260205f20015f6101000a81549073ffffffffffffffffffffffffffffffffffffffff021916905590555f6001805490506106f1610828565b6106fb9190610b59565b90506001818154811061071157610710610b89565b5b905f5260205f20015f9054906101000a900473ffffffffffffffffffffffffffffffffffffffff1660045f6101000a81548173ffffffffffffffffffffffffffffffffffffffff021916908373ffffffffffffffffffffffffffffffffffffffff1602179055507fa13a63ff3d20f414039d995474dde6f4cd18574f9051cc2d3f38d360a5b0c20360025f9054906101000a900473ffffffffffffffffffffffffffffffffffffffff1660035f9054906101000a900473ffffffffffffffffffffffffffffffffffffffff1660045f9054906101000a900473ffffffffffffffffffffffffffffffffffffffff1660405161080e93929190610c43565b60405180910390a160015f610823919061085c565b505050565b5f4442600160405160200161083f93929190610da8565b604051602081830303815290604052805190602001205f1c905090565b5080545f8255905f5260205f2090810190610877919061087a565b50565b5b80821115610891575f815f90555060010161087b565b5090565b5f80fd5b5f819050919050565b6108ab81610899565b81146108b5575f80fd5b50565b5f813590506108c6816108a2565b92915050565b5f602082840312156108e1576108e0610895565b5b5f6108ee848285016108b8565b91505092915050565b5f73ffffffffffffffffffffffffffffffffffffffff82169050919050565b5f610920826108f7565b9050919050565b61093081610916565b82525050565b5f6020820190506109495f830184610927565b92915050565b5f81519050919050565b5f82825260208201905092915050565b5f819050602082019050919050565b61098181610916565b82525050565b5f6109928383610978565b60208301905092915050565b5f602082019050919050565b5f6109b48261094f565b6109be8185610959565b93506109c983610969565b805f5b838110156109f95781516109e08882610987565b97506109eb8361099e565b9250506001810190506109cc565b5085935050505092915050565b5f6020820190508181035f830152610a1e81846109aa565b905092915050565b5f82825260208201905092915050565b7f4c6f74746572792069732066756c6c00000000000000000000000000000000005f82015250565b5f610a6a600f83610a26565b9150610a7582610a36565b602082019050919050565b5f6020820190508181035f830152610a9781610a5e565b9050919050565b7f4e6f7420656e6f756768207061727469636970616e747320746f2064726177205f8201527f6c6f747465727900000000000000000000000000000000000000000000000000602082015250565b5f610af8602783610a26565b9150610b0382610a9e565b604082019050919050565b5f6020820190508181035f830152610b2581610aec565b9050919050565b7f4e487b71000000000000000000000000000000000000000000000000000000005f52601260045260245ffd5b5f610b6382610899565b9150610b6e83610899565b925082610b7e57610b7d610b2c565b5b828206905092915050565b7f4e487b71000000000000000000000000000000000000000000000000000000005f52603260045260245ffd5b7f4e487b71000000000000000000000000000000000000000000000000000000005f52601160045260245ffd5b5f610bed82610899565b9150610bf883610899565b9250828203905081811115610c1057610c0f610bb6565b5b92915050565b7f4e487b71000000000000000000000000000000000000000000000000000000005f52603160045260245ffd5b5f606082019050610c565f830186610927565b610c636020830185610927565b610c706040830184610927565b949350505050565b5f819050919050565b610c92610c8d82610899565b610c78565b82525050565b5f81549050919050565b5f81905092915050565b5f819050815f5260205f209050919050565b610cc781610916565b82525050565b5f610cd88383610cbe565b60208301905092915050565b5f815f1c9050919050565b5f73ffffffffffffffffffffffffffffffffffffffff82169050919050565b5f610d20610d1b83610ce4565b610cef565b9050919050565b5f610d328254610d0e565b9050919050565b5f600182019050919050565b5f610d4f82610c98565b610d598185610ca2565b9350610d6483610cac565b805f5b83811015610d9b57610d7882610d27565b610d828882610ccd565b9750610d8d83610d39565b925050600181019050610d67565b5085935050505092915050565b5f610db38286610c81565b602082019150610dc38285610c81565b602082019150610dd38284610d45565b915081905094935050505056fea2646970667358221220bd434c676fe4e1c88d00e778e8266abe5b81e6dae4510183857807fc1c90265c64736f6c634300081a0033",
					"opcodes": "PUSH1 0x80 PUSH1 0x40 MSTORE CALLVALUE DUP1 ISZERO PUSH1 0xE JUMPI PUSH0 DUP1 REVERT JUMPDEST POP CALLER PUSH0 DUP1 PUSH2 0x100 EXP DUP2 SLOAD DUP2 PUSH20 0xFFFFFFFFFFFFFFFFFFFFFFFFFFFFFFFFFFFFFFFF MUL NOT AND SWAP1 DUP4 PUSH20 0xFFFFFFFFFFFFFFFFFFFFFFFFFFFFFFFFFFFFFFFF AND MUL OR SWAP1 SSTORE POP PUSH2 0xE16 DUP1 PUSH2 0x5B PUSH0 CODECOPY PUSH0 RETURN INVALID PUSH1 0x80 PUSH1 0x40 MSTORE CALLVALUE DUP1 ISZERO PUSH2 0xF JUMPI PUSH0 DUP1 REVERT JUMPDEST POP PUSH1 0x4 CALLDATASIZE LT PUSH2 0x7B JUMPI PUSH0 CALLDATALOAD PUSH1 0xE0 SHR DUP1 PUSH4 0x5AA68AC0 GT PUSH2 0x59 JUMPI DUP1 PUSH4 0x5AA68AC0 EQ PUSH2 0xEB JUMPI DUP1 PUSH4 0x9BE6AE64 EQ PUSH2 0x109 JUMPI DUP1 PUSH4 0xB3D64268 EQ PUSH2 0x127 JUMPI DUP1 PUSH4 0xC1AF5785 EQ PUSH2 0x145 JUMPI PUSH2 0x7B JUMP JUMPDEST DUP1 PUSH4 0x35C1D349 EQ PUSH2 0x7F JUMPI DUP1 PUSH4 0x42A3E93F EQ PUSH2 0xAF JUMPI DUP1 PUSH4 0x481C6A75 EQ PUSH2 0xCD JUMPI JUMPDEST PUSH0 DUP1 REVERT JUMPDEST PUSH2 0x99 PUSH1 0x4 DUP1 CALLDATASIZE SUB DUP2 ADD SWAP1 PUSH2 0x94 SWAP2 SWAP1 PUSH2 0x8CC JUMP JUMPDEST PUSH2 0x14F JUMP JUMPDEST PUSH1 0x40 MLOAD PUSH2 0xA6 SWAP2 SWAP1 PUSH2 0x936 JUMP JUMPDEST PUSH1 0x40 MLOAD DUP1 SWAP2 SUB SWAP1 RETURN JUMPDEST PUSH2 0xB7 PUSH2 0x18A JUMP JUMPDEST PUSH1 0x40 MLOAD PUSH2 0xC4 SWAP2 SWAP1 PUSH2 0x936 JUMP JUMPDEST PUSH1 0x40 MLOAD DUP1 SWAP2 SUB SWAP1 RETURN JUMPDEST PUSH2 0xD5 PUSH2 0x1AF JUMP JUMPDEST PUSH1 0x40 MLOAD PUSH2 0xE2 SWAP2 SWAP1 PUSH2 0x936 JUMP JUMPDEST PUSH1 0x40 MLOAD DUP1 SWAP2 SUB SWAP1 RETURN JUMPDEST PUSH2 0xF3 PUSH2 0x1D2 JUMP JUMPDEST PUSH1 0x40 MLOAD PUSH2 0x100 SWAP2 SWAP1 PUSH2 0xA06 JUMP JUMPDEST PUSH1 0x40 MLOAD DUP1 SWAP2 SUB SWAP1 RETURN JUMPDEST PUSH2 0x111 PUSH2 0x25D JUMP JUMPDEST PUSH1 0x40 MLOAD PUSH2 0x11E SWAP2 SWAP1 PUSH2 0x936 JUMP JUMPDEST PUSH1 0x40 MLOAD DUP1 SWAP2 SUB SWAP1 RETURN JUMPDEST PUSH2 0x12F PUSH2 0x282 JUMP JUMPDEST PUSH1 0x40 MLOAD PUSH2 0x13C SWAP2 SWAP1 PUSH2 0x936 JUMP JUMPDEST PUSH1 0x40 MLOAD DUP1 SWAP2 SUB SWAP1 RETURN JUMPDEST PUSH2 0x14D PUSH2 0x2A7 JUMP JUMPDEST STOP JUMPDEST PUSH1 0x1 DUP2 DUP2 SLOAD DUP2 LT PUSH2 0x15E JUMPI PUSH0 DUP1 REVERT JUMPDEST SWAP1 PUSH0 MSTORE PUSH1 0x20 PUSH0 KECCAK256 ADD PUSH0 SWAP2 POP SLOAD SWAP1 PUSH2 0x100 EXP SWAP1 DIV PUSH20 0xFFFFFFFFFFFFFFFFFFFFFFFFFFFFFFFFFFFFFFFF AND DUP2 JUMP JUMPDEST PUSH1 0x2 PUSH0 SWAP1 SLOAD SWAP1 PUSH2 0x100 EXP SWAP1 DIV PUSH20 0xFFFFFFFFFFFFFFFFFFFFFFFFFFFFFFFFFFFFFFFF AND DUP2 JUMP JUMPDEST PUSH0 DUP1 SLOAD SWAP1 PUSH2 0x100 EXP SWAP1 DIV PUSH20 0xFFFFFFFFFFFFFFFFFFFFFFFFFFFFFFFFFFFFFFFF AND DUP2 JUMP JUMPDEST PUSH1 0x60 PUSH1 0x1 DUP1 SLOAD DUP1 PUSH1 0x20 MUL PUSH1 0x20 ADD PUSH1 0x40 MLOAD SWAP1 DUP2 ADD PUSH1 0x40 MSTORE DUP1 SWAP3 SWAP2 SWAP1 DUP2 DUP2 MSTORE PUSH1 0x20 ADD DUP3 DUP1 SLOAD DUP1 ISZERO PUSH2 0x253 JUMPI PUSH1 0x20 MUL DUP3 ADD SWAP2 SWAP1 PUSH0 MSTORE PUSH1 0x20 PUSH0 KECCAK256 SWAP1 JUMPDEST DUP2 PUSH0 SWAP1 SLOAD SWAP1 PUSH2 0x100 EXP SWAP1 DIV PUSH20 0xFFFFFFFFFFFFFFFFFFFFFFFFFFFFFFFFFFFFFFFF AND PUSH20 0xFFFFFFFFFFFFFFFFFFFFFFFFFFFFFFFFFFFFFFFF AND DUP2 MSTORE PUSH1 0x20 ADD SWAP1 PUSH1 0x1 ADD SWAP1 DUP1 DUP4 GT PUSH2 0x20A JUMPI JUMPDEST POP POP POP POP POP SWAP1 POP SWAP1 JUMP JUMPDEST PUSH1 0x4 PUSH0 SWAP1 SLOAD SWAP1 PUSH2 0x100 EXP SWAP1 DIV PUSH20 0xFFFFFFFFFFFFFFFFFFFFFFFFFFFFFFFFFFFFFFFF AND DUP2 JUMP JUMPDEST PUSH1 0x3 PUSH0 SWAP1 SLOAD SWAP1 PUSH2 0x100 EXP SWAP1 DIV PUSH20 0xFFFFFFFFFFFFFFFFFFFFFFFFFFFFFFFFFFFFFFFF AND DUP2 JUMP JUMPDEST PUSH1 0x7 PUSH1 0x1 DUP1 SLOAD SWAP1 POP LT PUSH2 0x2EF JUMPI PUSH1 0x40 MLOAD PUSH32 0x8C379A000000000000000000000000000000000000000000000000000000000 DUP2 MSTORE PUSH1 0x4 ADD PUSH2 0x2E6 SWAP1 PUSH2 0xA80 JUMP JUMPDEST PUSH1 0x40 MLOAD DUP1 SWAP2 SUB SWAP1 REVERT JUMPDEST PUSH1 0x1 CALLER SWAP1 DUP1 PUSH1 0x1 DUP2 SLOAD ADD DUP1 DUP3 SSTORE DUP1 SWAP2 POP POP PUSH1 0x1 SWAP1 SUB SWAP1 PUSH0 MSTORE PUSH1 0x20 PUSH0 KECCAK256 ADD PUSH0 SWAP1 SWAP2 SWAP1 SWAP2 SWAP1 SWAP2 PUSH2 0x100 EXP DUP2 SLOAD DUP2 PUSH20 0xFFFFFFFFFFFFFFFFFFFFFFFFFFFFFFFFFFFFFFFF MUL NOT AND SWAP1 DUP4 PUSH20 0xFFFFFFFFFFFFFFFFFFFFFFFFFFFFFFFFFFFFFFFF AND MUL OR SWAP1 SSTORE POP PUSH32 0x4C72B57C1CA715219CF2C7BE9EDC8A3EA19DFB9A76FB7A05E2A8062A027EE970 CALLER PUSH1 0x40 MLOAD PUSH2 0x37E SWAP2 SWAP1 PUSH2 0x936 JUMP JUMPDEST PUSH1 0x40 MLOAD DUP1 SWAP2 SUB SWAP1 LOG1 PUSH1 0x7 PUSH1 0x1 DUP1 SLOAD SWAP1 POP SUB PUSH2 0x39C JUMPI PUSH2 0x39B PUSH2 0x39E JUMP JUMPDEST JUMPDEST JUMP JUMPDEST PUSH1 0x7 PUSH1 0x1 DUP1 SLOAD SWAP1 POP EQ PUSH2 0x3E6 JUMPI PUSH1 0x40 MLOAD PUSH32 0x8C379A000000000000000000000000000000000000000000000000000000000 DUP2 MSTORE PUSH1 0x4 ADD PUSH2 0x3DD SWAP1 PUSH2 0xB0E JUMP JUMPDEST PUSH1 0x40 MLOAD DUP1 SWAP2 SUB SWAP1 REVERT JUMPDEST PUSH0 PUSH1 0x1 DUP1 SLOAD SWAP1 POP PUSH2 0x3F5 PUSH2 0x828 JUMP JUMPDEST PUSH2 0x3FF SWAP2 SWAP1 PUSH2 0xB59 JUMP JUMPDEST SWAP1 POP PUSH1 0x1 DUP2 DUP2 SLOAD DUP2 LT PUSH2 0x415 JUMPI PUSH2 0x414 PUSH2 0xB89 JUMP JUMPDEST JUMPDEST SWAP1 PUSH0 MSTORE PUSH1 0x20 PUSH0 KECCAK256 ADD PUSH0 SWAP1 SLOAD SWAP1 PUSH2 0x100 EXP SWAP1 DIV PUSH20 0xFFFFFFFFFFFFFFFFFFFFFFFFFFFFFFFFFFFFFFFF AND PUSH1 0x2 PUSH0 PUSH2 0x100 EXP DUP2 SLOAD DUP2 PUSH20 0xFFFFFFFFFFFFFFFFFFFFFFFFFFFFFFFFFFFFFFFF MUL NOT AND SWAP1 DUP4 PUSH20 0xFFFFFFFFFFFFFFFFFFFFFFFFFFFFFFFFFFFFFFFF AND MUL OR SWAP1 SSTORE POP PUSH1 0x1 DUP1 DUP1 DUP1 SLOAD SWAP1 POP PUSH2 0x48E SWAP2 SWAP1 PUSH2 0xBE3 JUMP JUMPDEST DUP2 SLOAD DUP2 LT PUSH2 0x49F JUMPI PUSH2 0x49E PUSH2 0xB89 JUMP JUMPDEST JUMPDEST SWAP1 PUSH0 MSTORE PUSH1 0x20 PUSH0 KECCAK256 ADD PUSH0 SWAP1 SLOAD SWAP1 PUSH2 0x100 EXP SWAP1 DIV PUSH20 0xFFFFFFFFFFFFFFFFFFFFFFFFFFFFFFFFFFFFFFFF AND PUSH1 0x1 DUP3 DUP2 SLOAD DUP2 LT PUSH2 0x4DB JUMPI PUSH2 0x4DA PUSH2 0xB89 JUMP JUMPDEST JUMPDEST SWAP1 PUSH0 MSTORE PUSH1 0x20 PUSH0 KECCAK256 ADD PUSH0 PUSH2 0x100 EXP DUP2 SLOAD DUP2 PUSH20 0xFFFFFFFFFFFFFFFFFFFFFFFFFFFFFFFFFFFFFFFF MUL NOT AND SWAP1 DUP4 PUSH20 0xFFFFFFFFFFFFFFFFFFFFFFFFFFFFFFFFFFFFFFFF AND MUL OR SWAP1 SSTORE POP PUSH1 0x1 DUP1 SLOAD DUP1 PUSH2 0x532 JUMPI PUSH2 0x531 PUSH2 0xC16 JUMP JUMPDEST JUMPDEST PUSH1 0x1 SWAP1 SUB DUP2 DUP2 SWAP1 PUSH0 MSTORE PUSH1 0x20 PUSH0 KECCAK256 ADD PUSH0 PUSH2 0x100 EXP DUP2 SLOAD SWAP1 PUSH20 0xFFFFFFFFFFFFFFFFFFFFFFFFFFFFFFFFFFFFFFFF MUL NOT AND SWAP1 SSTORE SWAP1 SSTORE PUSH0 PUSH1 0x1 DUP1 SLOAD SWAP1 POP PUSH2 0x573 PUSH2 0x828 JUMP JUMPDEST PUSH2 0x57D SWAP2 SWAP1 PUSH2 0xB59 JUMP JUMPDEST SWAP1 POP PUSH1 0x1 DUP2 DUP2 SLOAD DUP2 LT PUSH2 0x593 JUMPI PUSH2 0x592 PUSH2 0xB89 JUMP JUMPDEST JUMPDEST SWAP1 PUSH0 MSTORE PUSH1 0x20 PUSH0 KECCAK256 ADD PUSH0 SWAP1 SLOAD SWAP1 PUSH2 0x100 EXP SWAP1 DIV PUSH20 0xFFFFFFFFFFFFFFFFFFFFFFFFFFFFFFFFFFFFFFFF AND PUSH1 0x3 PUSH0 PUSH2 0x100 EXP DUP2 SLOAD DUP2 PUSH20 0xFFFFFFFFFFFFFFFFFFFFFFFFFFFFFFFFFFFFFFFF MUL NOT AND SWAP1 DUP4 PUSH20 0xFFFFFFFFFFFFFFFFFFFFFFFFFFFFFFFFFFFFFFFF AND MUL OR SWAP1 SSTORE POP PUSH1 0x1 DUP1 DUP1 DUP1 SLOAD SWAP1 POP PUSH2 0x60C SWAP2 SWAP1 PUSH2 0xBE3 JUMP JUMPDEST DUP2 SLOAD DUP2 LT PUSH2 0x61D JUMPI PUSH2 0x61C PUSH2 0xB89 JUMP JUMPDEST JUMPDEST SWAP1 PUSH0 MSTORE PUSH1 0x20 PUSH0 KECCAK256 ADD PUSH0 SWAP1 SLOAD SWAP1 PUSH2 0x100 EXP SWAP1 DIV PUSH20 0xFFFFFFFFFFFFFFFFFFFFFFFFFFFFFFFFFFFFFFFF AND PUSH1 0x1 DUP3 DUP2 SLOAD DUP2 LT PUSH2 0x659 JUMPI PUSH2 0x658 PUSH2 0xB89 JUMP JUMPDEST JUMPDEST SWAP1 PUSH0 MSTORE PUSH1 0x20 PUSH0 KECCAK256 ADD PUSH0 PUSH2 0x100 EXP DUP2 SLOAD DUP2 PUSH20 0xFFFFFFFFFFFFFFFFFFFFFFFFFFFFFFFFFFFFFFFF MUL NOT AND SWAP1 DUP4 PUSH20 0xFFFFFFFFFFFFFFFFFFFFFFFFFFFFFFFFFFFFFFFF AND MUL OR SWAP1 SSTORE POP PUSH1 0x1 DUP1 SLOAD DUP1 PUSH2 0x6B0 JUMPI PUSH2 0x6AF PUSH2 0xC16 JUMP JUMPDEST JUMPDEST PUSH1 0x1 SWAP1 SUB DUP2 DUP2 SWAP1 PUSH0 MSTORE PUSH1 0x20 PUSH0 KECCAK256 ADD PUSH0 PUSH2 0x100 EXP DUP2 SLOAD SWAP1 PUSH20 0xFFFFFFFFFFFFFFFFFFFFFFFFFFFFFFFFFFFFFFFF MUL NOT AND SWAP1 SSTORE SWAP1 SSTORE PUSH0 PUSH1 0x1 DUP1 SLOAD SWAP1 POP PUSH2 0x6F1 PUSH2 0x828 JUMP JUMPDEST PUSH2 0x6FB SWAP2 SWAP1 PUSH2 0xB59 JUMP JUMPDEST SWAP1 POP PUSH1 0x1 DUP2 DUP2 SLOAD DUP2 LT PUSH2 0x711 JUMPI PUSH2 0x710 PUSH2 0xB89 JUMP JUMPDEST JUMPDEST SWAP1 PUSH0 MSTORE PUSH1 0x20 PUSH0 KECCAK256 ADD PUSH0 SWAP1 SLOAD SWAP1 PUSH2 0x100 EXP SWAP1 DIV PUSH20 0xFFFFFFFFFFFFFFFFFFFFFFFFFFFFFFFFFFFFFFFF AND PUSH1 0x4 PUSH0 PUSH2 0x100 EXP DUP2 SLOAD DUP2 PUSH20 0xFFFFFFFFFFFFFFFFFFFFFFFFFFFFFFFFFFFFFFFF MUL NOT AND SWAP1 DUP4 PUSH20 0xFFFFFFFFFFFFFFFFFFFFFFFFFFFFFFFFFFFFFFFF AND MUL OR SWAP1 SSTORE POP PUSH32 0xA13A63FF3D20F414039D995474DDE6F4CD18574F9051CC2D3F38D360A5B0C203 PUSH1 0x2 PUSH0 SWAP1 SLOAD SWAP1 PUSH2 0x100 EXP SWAP1 DIV PUSH20 0xFFFFFFFFFFFFFFFFFFFFFFFFFFFFFFFFFFFFFFFF AND PUSH1 0x3 PUSH0 SWAP1 SLOAD SWAP1 PUSH2 0x100 EXP SWAP1 DIV PUSH20 0xFFFFFFFFFFFFFFFFFFFFFFFFFFFFFFFFFFFFFFFF AND PUSH1 0x4 PUSH0 SWAP1 SLOAD SWAP1 PUSH2 0x100 EXP SWAP1 DIV PUSH20 0xFFFFFFFFFFFFFFFFFFFFFFFFFFFFFFFFFFFFFFFF AND PUSH1 0x40 MLOAD PUSH2 0x80E SWAP4 SWAP3 SWAP2 SWAP1 PUSH2 0xC43 JUMP JUMPDEST PUSH1 0x40 MLOAD DUP1 SWAP2 SUB SWAP1 LOG1 PUSH1 0x1 PUSH0 PUSH2 0x823 SWAP2 SWAP1 PUSH2 0x85C JUMP JUMPDEST POP POP POP JUMP JUMPDEST PUSH0 PREVRANDAO TIMESTAMP PUSH1 0x1 PUSH1 0x40 MLOAD PUSH1 0x20 ADD PUSH2 0x83F SWAP4 SWAP3 SWAP2 SWAP1 PUSH2 0xDA8 JUMP JUMPDEST PUSH1 0x40 MLOAD PUSH1 0x20 DUP2 DUP4 SUB SUB DUP2 MSTORE SWAP1 PUSH1 0x40 MSTORE DUP1 MLOAD SWAP1 PUSH1 0x20 ADD KECCAK256 PUSH0 SHR SWAP1 POP SWAP1 JUMP JUMPDEST POP DUP1 SLOAD PUSH0 DUP3 SSTORE SWAP1 PUSH0 MSTORE PUSH1 0x20 PUSH0 KECCAK256 SWAP1 DUP2 ADD SWAP1 PUSH2 0x877 SWAP2 SWAP1 PUSH2 0x87A JUMP JUMPDEST POP JUMP JUMPDEST JUMPDEST DUP1 DUP3 GT ISZERO PUSH2 0x891 JUMPI PUSH0 DUP2 PUSH0 SWAP1 SSTORE POP PUSH1 0x1 ADD PUSH2 0x87B JUMP JUMPDEST POP SWAP1 JUMP JUMPDEST PUSH0 DUP1 REVERT JUMPDEST PUSH0 DUP2 SWAP1 POP SWAP2 SWAP1 POP JUMP JUMPDEST PUSH2 0x8AB DUP2 PUSH2 0x899 JUMP JUMPDEST DUP2 EQ PUSH2 0x8B5 JUMPI PUSH0 DUP1 REVERT JUMPDEST POP JUMP JUMPDEST PUSH0 DUP2 CALLDATALOAD SWAP1 POP PUSH2 0x8C6 DUP2 PUSH2 0x8A2 JUMP JUMPDEST SWAP3 SWAP2 POP POP JUMP JUMPDEST PUSH0 PUSH1 0x20 DUP3 DUP5 SUB SLT ISZERO PUSH2 0x8E1 JUMPI PUSH2 0x8E0 PUSH2 0x895 JUMP JUMPDEST JUMPDEST PUSH0 PUSH2 0x8EE DUP5 DUP3 DUP6 ADD PUSH2 0x8B8 JUMP JUMPDEST SWAP2 POP POP SWAP3 SWAP2 POP POP JUMP JUMPDEST PUSH0 PUSH20 0xFFFFFFFFFFFFFFFFFFFFFFFFFFFFFFFFFFFFFFFF DUP3 AND SWAP1 POP SWAP2 SWAP1 POP JUMP JUMPDEST PUSH0 PUSH2 0x920 DUP3 PUSH2 0x8F7 JUMP JUMPDEST SWAP1 POP SWAP2 SWAP1 POP JUMP JUMPDEST PUSH2 0x930 DUP2 PUSH2 0x916 JUMP JUMPDEST DUP3 MSTORE POP POP JUMP JUMPDEST PUSH0 PUSH1 0x20 DUP3 ADD SWAP1 POP PUSH2 0x949 PUSH0 DUP4 ADD DUP5 PUSH2 0x927 JUMP JUMPDEST SWAP3 SWAP2 POP POP JUMP JUMPDEST PUSH0 DUP2 MLOAD SWAP1 POP SWAP2 SWAP1 POP JUMP JUMPDEST PUSH0 DUP3 DUP3 MSTORE PUSH1 0x20 DUP3 ADD SWAP1 POP SWAP3 SWAP2 POP POP JUMP JUMPDEST PUSH0 DUP2 SWAP1 POP PUSH1 0x20 DUP3 ADD SWAP1 POP SWAP2 SWAP1 POP JUMP JUMPDEST PUSH2 0x981 DUP2 PUSH2 0x916 JUMP JUMPDEST DUP3 MSTORE POP POP JUMP JUMPDEST PUSH0 PUSH2 0x992 DUP4 DUP4 PUSH2 0x978 JUMP JUMPDEST PUSH1 0x20 DUP4 ADD SWAP1 POP SWAP3 SWAP2 POP POP JUMP JUMPDEST PUSH0 PUSH1 0x20 DUP3 ADD SWAP1 POP SWAP2 SWAP1 POP JUMP JUMPDEST PUSH0 PUSH2 0x9B4 DUP3 PUSH2 0x94F JUMP JUMPDEST PUSH2 0x9BE DUP2 DUP6 PUSH2 0x959 JUMP JUMPDEST SWAP4 POP PUSH2 0x9C9 DUP4 PUSH2 0x969 JUMP JUMPDEST DUP1 PUSH0 JUMPDEST DUP4 DUP2 LT ISZERO PUSH2 0x9F9 JUMPI DUP2 MLOAD PUSH2 0x9E0 DUP9 DUP3 PUSH2 0x987 JUMP JUMPDEST SWAP8 POP PUSH2 0x9EB DUP4 PUSH2 0x99E JUMP JUMPDEST SWAP3 POP POP PUSH1 0x1 DUP2 ADD SWAP1 POP PUSH2 0x9CC JUMP JUMPDEST POP DUP6 SWAP4 POP POP POP POP SWAP3 SWAP2 POP POP JUMP JUMPDEST PUSH0 PUSH1 0x20 DUP3 ADD SWAP1 POP DUP2 DUP2 SUB PUSH0 DUP4 ADD MSTORE PUSH2 0xA1E DUP2 DUP5 PUSH2 0x9AA JUMP JUMPDEST SWAP1 POP SWAP3 SWAP2 POP POP JUMP JUMPDEST PUSH0 DUP3 DUP3 MSTORE PUSH1 0x20 DUP3 ADD SWAP1 POP SWAP3 SWAP2 POP POP JUMP JUMPDEST PUSH32 0x4C6F74746572792069732066756C6C0000000000000000000000000000000000 PUSH0 DUP3 ADD MSTORE POP JUMP JUMPDEST PUSH0 PUSH2 0xA6A PUSH1 0xF DUP4 PUSH2 0xA26 JUMP JUMPDEST SWAP2 POP PUSH2 0xA75 DUP3 PUSH2 0xA36 JUMP JUMPDEST PUSH1 0x20 DUP3 ADD SWAP1 POP SWAP2 SWAP1 POP JUMP JUMPDEST PUSH0 PUSH1 0x20 DUP3 ADD SWAP1 POP DUP2 DUP2 SUB PUSH0 DUP4 ADD MSTORE PUSH2 0xA97 DUP2 PUSH2 0xA5E JUMP JUMPDEST SWAP1 POP SWAP2 SWAP1 POP JUMP JUMPDEST PUSH32 0x4E6F7420656E6F756768207061727469636970616E747320746F206472617720 PUSH0 DUP3 ADD MSTORE PUSH32 0x6C6F747465727900000000000000000000000000000000000000000000000000 PUSH1 0x20 DUP3 ADD MSTORE POP JUMP JUMPDEST PUSH0 PUSH2 0xAF8 PUSH1 0x27 DUP4 PUSH2 0xA26 JUMP JUMPDEST SWAP2 POP PUSH2 0xB03 DUP3 PUSH2 0xA9E JUMP JUMPDEST PUSH1 0x40 DUP3 ADD SWAP1 POP SWAP2 SWAP1 POP JUMP JUMPDEST PUSH0 PUSH1 0x20 DUP3 ADD SWAP1 POP DUP2 DUP2 SUB PUSH0 DUP4 ADD MSTORE PUSH2 0xB25 DUP2 PUSH2 0xAEC JUMP JUMPDEST SWAP1 POP SWAP2 SWAP1 POP JUMP JUMPDEST PUSH32 0x4E487B7100000000000000000000000000000000000000000000000000000000 PUSH0 MSTORE PUSH1 0x12 PUSH1 0x4 MSTORE PUSH1 0x24 PUSH0 REVERT JUMPDEST PUSH0 PUSH2 0xB63 DUP3 PUSH2 0x899 JUMP JUMPDEST SWAP2 POP PUSH2 0xB6E DUP4 PUSH2 0x899 JUMP JUMPDEST SWAP3 POP DUP3 PUSH2 0xB7E JUMPI PUSH2 0xB7D PUSH2 0xB2C JUMP JUMPDEST JUMPDEST DUP3 DUP3 MOD SWAP1 POP SWAP3 SWAP2 POP POP JUMP JUMPDEST PUSH32 0x4E487B7100000000000000000000000000000000000000000000000000000000 PUSH0 MSTORE PUSH1 0x32 PUSH1 0x4 MSTORE PUSH1 0x24 PUSH0 REVERT JUMPDEST PUSH32 0x4E487B7100000000000000000000000000000000000000000000000000000000 PUSH0 MSTORE PUSH1 0x11 PUSH1 0x4 MSTORE PUSH1 0x24 PUSH0 REVERT JUMPDEST PUSH0 PUSH2 0xBED DUP3 PUSH2 0x899 JUMP JUMPDEST SWAP2 POP PUSH2 0xBF8 DUP4 PUSH2 0x899 JUMP JUMPDEST SWAP3 POP DUP3 DUP3 SUB SWAP1 POP DUP2 DUP2 GT ISZERO PUSH2 0xC10 JUMPI PUSH2 0xC0F PUSH2 0xBB6 JUMP JUMPDEST JUMPDEST SWAP3 SWAP2 POP POP JUMP JUMPDEST PUSH32 0x4E487B7100000000000000000000000000000000000000000000000000000000 PUSH0 MSTORE PUSH1 0x31 PUSH1 0x4 MSTORE PUSH1 0x24 PUSH0 REVERT JUMPDEST PUSH0 PUSH1 0x60 DUP3 ADD SWAP1 POP PUSH2 0xC56 PUSH0 DUP4 ADD DUP7 PUSH2 0x927 JUMP JUMPDEST PUSH2 0xC63 PUSH1 0x20 DUP4 ADD DUP6 PUSH2 0x927 JUMP JUMPDEST PUSH2 0xC70 PUSH1 0x40 DUP4 ADD DUP5 PUSH2 0x927 JUMP JUMPDEST SWAP5 SWAP4 POP POP POP POP JUMP JUMPDEST PUSH0 DUP2 SWAP1 POP SWAP2 SWAP1 POP JUMP JUMPDEST PUSH2 0xC92 PUSH2 0xC8D DUP3 PUSH2 0x899 JUMP JUMPDEST PUSH2 0xC78 JUMP JUMPDEST DUP3 MSTORE POP POP JUMP JUMPDEST PUSH0 DUP2 SLOAD SWAP1 POP SWAP2 SWAP1 POP JUMP JUMPDEST PUSH0 DUP2 SWAP1 POP SWAP3 SWAP2 POP POP JUMP JUMPDEST PUSH0 DUP2 SWAP1 POP DUP2 PUSH0 MSTORE PUSH1 0x20 PUSH0 KECCAK256 SWAP1 POP SWAP2 SWAP1 POP JUMP JUMPDEST PUSH2 0xCC7 DUP2 PUSH2 0x916 JUMP JUMPDEST DUP3 MSTORE POP POP JUMP JUMPDEST PUSH0 PUSH2 0xCD8 DUP4 DUP4 PUSH2 0xCBE JUMP JUMPDEST PUSH1 0x20 DUP4 ADD SWAP1 POP SWAP3 SWAP2 POP POP JUMP JUMPDEST PUSH0 DUP2 PUSH0 SHR SWAP1 POP SWAP2 SWAP1 POP JUMP JUMPDEST PUSH0 PUSH20 0xFFFFFFFFFFFFFFFFFFFFFFFFFFFFFFFFFFFFFFFF DUP3 AND SWAP1 POP SWAP2 SWAP1 POP JUMP JUMPDEST PUSH0 PUSH2 0xD20 PUSH2 0xD1B DUP4 PUSH2 0xCE4 JUMP JUMPDEST PUSH2 0xCEF JUMP JUMPDEST SWAP1 POP SWAP2 SWAP1 POP JUMP JUMPDEST PUSH0 PUSH2 0xD32 DUP3 SLOAD PUSH2 0xD0E JUMP JUMPDEST SWAP1 POP SWAP2 SWAP1 POP JUMP JUMPDEST PUSH0 PUSH1 0x1 DUP3 ADD SWAP1 POP SWAP2 SWAP1 POP JUMP JUMPDEST PUSH0 PUSH2 0xD4F DUP3 PUSH2 0xC98 JUMP JUMPDEST PUSH2 0xD59 DUP2 DUP6 PUSH2 0xCA2 JUMP JUMPDEST SWAP4 POP PUSH2 0xD64 DUP4 PUSH2 0xCAC JUMP JUMPDEST DUP1 PUSH0 JUMPDEST DUP4 DUP2 LT ISZERO PUSH2 0xD9B JUMPI PUSH2 0xD78 DUP3 PUSH2 0xD27 JUMP JUMPDEST PUSH2 0xD82 DUP9 DUP3 PUSH2 0xCCD JUMP JUMPDEST SWAP8 POP PUSH2 0xD8D DUP4 PUSH2 0xD39 JUMP JUMPDEST SWAP3 POP POP PUSH1 0x1 DUP2 ADD SWAP1 POP PUSH2 0xD67 JUMP JUMPDEST POP DUP6 SWAP4 POP POP POP POP SWAP3 SWAP2 POP POP JUMP JUMPDEST PUSH0 PUSH2 0xDB3 DUP3 DUP7 PUSH2 0xC81 JUMP JUMPDEST PUSH1 0x20 DUP3 ADD SWAP2 POP PUSH2 0xDC3 DUP3 DUP6 PUSH2 0xC81 JUMP JUMPDEST PUSH1 0x20 DUP3 ADD SWAP2 POP PUSH2 0xDD3 DUP3 DUP5 PUSH2 0xD45 JUMP JUMPDEST SWAP2 POP DUP2 SWAP1 POP SWAP5 SWAP4 POP POP POP POP JUMP INVALID LOG2 PUSH5 0x6970667358 0x22 SLT KECCAK256 0xBD NUMBER 0x4C PUSH8 0x6FE4E1C88D00E778 0xE8 0x26 PUSH11 0xBE5B81E6DAE45101838578 SMOD 0xFC SHR SWAP1 0x26 TLOAD PUSH5 0x736F6C6343 STOP ADDMOD BYTE STOP CALLER "
				},
				"gasEstimates": {
					"creation": {
						"codeDepositCost": "721200",
						"executionCost": "25016",
						"totalCost": "746216"
					},
					"external": {
						"enterLottery()": "infinite",
						"firstPrizeWinner()": "2531",
						"getParticipants()": "infinite",
						"manager()": "2550",
						"participants(uint256)": "4945",
						"secondPrizeWinner()": "2552",
						"thirdPrizeWinner()": "2530"
					},
					"internal": {
						"drawLottery()": "infinite",
						"random()": "infinite"
					}
				},
				"methodIdentifiers": {
					"enterLottery()": "c1af5785",
					"firstPrizeWinner()": "42a3e93f",
					"getParticipants()": "5aa68ac0",
					"manager()": "481c6a75",
					"participants(uint256)": "35c1d349",
					"secondPrizeWinner()": "b3d64268",
					"thirdPrizeWinner()": "9be6ae64"
				}
			},
			"storageLayout": {
				"storage": [
					{
						"astId": 3,
						"contract": "myroll.sol:Lottery",
						"label": "manager",
						"offset": 0,
						"slot": "0",
						"type": "t_address"
					},
					{
						"astId": 6,
						"contract": "myroll.sol:Lottery",
						"label": "participants",
						"offset": 0,
						"slot": "1",
						"type": "t_array(t_address)dyn_storage"
					},
					{
						"astId": 8,
						"contract": "myroll.sol:Lottery",
						"label": "firstPrizeWinner",
						"offset": 0,
						"slot": "2",
						"type": "t_address"
					},
					{
						"astId": 10,
						"contract": "myroll.sol:Lottery",
						"label": "secondPrizeWinner",
						"offset": 0,
						"slot": "3",
						"type": "t_address"
					},
					{
						"astId": 12,
						"contract": "myroll.sol:Lottery",
						"label": "thirdPrizeWinner",
						"offset": 0,
						"slot": "4",
						"type": "t_address"
					}
				],
				"types": {
					"t_address": {
						"encoding": "inplace",
						"label": "address",
						"numberOfBytes": "20"
					},
					"t_array(t_address)dyn_storage": {
						"base": "t_address",
						"encoding": "dynamic_array",
						"label": "address[]",
						"numberOfBytes": "32"
					}
				}
			},
			"userdoc": {
				"kind": "user",
				"methods": {},
				"version": 1
			}
		}
	}
}